:1000000000800020BD010000456C0000FD6B000079
:10001000FD6B0000FD6B0000FD6B0000FD6B000040
:10002000FD6B0000FD6B0000FD6B0000456C0000E7
:10003000456C0000FD6B0000298200002D8200004D
:10004000456C0000456C0000456C0000456C0000EC
:10005000456C0000456C0000456C0000456C0000DC
:10006000456C0000456C0000456C0000456C0000CC
:10007000456C0000456C0000456C0000456C0000BC
:10008000456C0000456C0000456C0000456C0000AC
:10009000456C0000456C0000456C0000456C00009C
:1000A000A5640000B1640000456C0000456C0000D0
:1000B000456C0000456C0000456C0000456C00007C
:1000C000456C0000456C0000456C0000456C00006C
:1000D000456C0000456C0000456C0000456C00005C
:1000E000456C0000456C0000456C0000456C00004C
:1000F000456C0000456C0000456C0000456C00003C
:10010000456C0000456C0000456C0000456C00002B
:10011000456C0000456C0000456C0000456C00001B
:10012000456C0000456C0000456C0000456C00000B
:10013000456C0000456C0000456C0000456C0000FB
:10014000456C0000456C0000456C0000456C0000EB
:10015000456C0000456C0000456C0000456C0000DB
:10016000456C000081720000456C0000456C000089
:10017000456C0000456C0000456C0000456C0000BB
:10018000456C0000456C0000456C0000456C0000AB
:10019000456C0000456C0000456C0000456C00009B
:1001A000456C0000456C0000456C0000456C00008B
:1001B000456C0000456C0000456C0000564B4CF24D
:1001C000205210B51A804DF628121A8000BF00BFC9
:1001D00006F03CFD514B4FF010621A60504A9A6095
:1001E000504ADA60504A136813F4807304D14F49BF
:1001F0000B604FF4A85313604D4B1A78110703D5C9
:100200001A7842F008021A704A4B4B492A221A7097
:100210004A4A4B4B8B4204D252F8040F43F8040B6A
:10022000F8E7484B484900228B4202D243F8042B9E
:10023000FAE74649464A002352F8230041F82300D2
:1002400001336F2BF8D1434B434A802103F8011B44
:100250009342FBD1414B3D4A1A60414B8A221A70AE
:10026000A3F5805324225A70A0221A709A7992071B
:10027000FCD59A79D406FCD43A4A937903F00C035E
:10028000082B384BF9D103221A7140225A719A79FE
:100290009006FCD5334A9179324B4906FBD5324A58
:1002A000324911600221516020221A709A7902F0BD
:1002B0000C020C2AFAD12E4B2E4A1A602E4B2F4AD2
:1002C0001A6000225A60072243F8042C2C4AC3F813
:1002D0000C2D62B606F08AFE144B1B68DA0705D5B2
:1002E000284806F017FE284B284A1A60284B1B782E
:1002F0005B0609D5244C254B22689A4204D121483B
:1003000006F008FE0023236009F074F906F0A4FC4F
:1003100007F094FFFEE700BF0E2005403080044048
:10032000823F04000100002B10D0034014D0034092
:1003300002D0074000E00740F094FF1F80BC01009E
:100340002087FF1FF094FF1F9498FF1F0082FF1F5C
:100350000000000000E400E05FE400E008ED00E0E1
:100360000050064000400640448004400000030165
:1003700004800440C010050014E000E0FF76010096
:100380000000202000EF1F651CE00340A5C3945A25
:1003900000F00740FFFFFFFFFFFFFFFFFFFFFFFF32
:1003A000FFFFFFFFFFFFFFFFFFFFFFFFFFFFFFFF5D
:1003B000FFFFFFFFFFFFFFFFFFFFFFFFFFFFFFFF4D
:1003C000FFFFFFFFFFFFFFFFFFFFFFFFFFFFFFFF3D
:1003D000FFFFFFFFFFFFFFFFFFFFFFFFFFFFFFFF2D
:1003E000FFFFFFFFFFFFFFFFFFFFFFFFFFFFFFFF1D
:1003F000FFFFFFFFFFFFFFFFFFFFFFFFFFFFFFFF0D
:10040000FFFFFFFFFFFFFFFFFFFFFFFFDEF9FFFF23
:1004100010B5054C237833B9044B13B10448AFF33E
:1004200000800123237010BDF094FF1F0000000026
:100430007CBC0100084B10B51BB108490848AFF35C
:1004400000800848036803B910BD074B002BFBD0A0
:10045000BDE81040184700BF00000000F494FF1FE3
:100460007CBC0100F094FF1F0000000038B504467A
:1004700008460D4609F024FF2368024629465B68BA
:10048000204698470546204607F006FF284438BD19
:100490002DE9F041044686B0884606F083F92578B8
:1004A0006179637827790A4A0491E678A478009400
:1004B00000EB400E05F5FA650195404602EB8E0211
:1004C00003970296034909F05BFE06B0BDE8F08190
:1004D0001088FF1F44DA000030B583B00DF1080E1C
:1004E0000EE906001F4C204DB4F920300022828016
:1004F000BDF90020AB42A2F6AE621CDA1B4903FB39
:10050000022381FB0312DB17A3EBA222B4F92230F2
:1005100017490280BDF902208B42A2F61C6214DB4F
:10052000144903FB02F281FB0231D317A3EBA12391
:10053000438003B030BD104903FB02F381FB03127B
:100540001A44DB17A3EBE222E0E70C4903FB02228B
:1005500081FB02139918D317A3EBE123438003B067
:1005600030BD00BF2095FF1FAAF3FFFFC329095329
:100570003CF4FFFFD57F085725DD04A64FCC1FAE06
:1005800030B51748174CB0F90830B0F90420B0F96D
:100590000010B0F90C0083B00025009001952046B2
:1005A00002F0CCFF10480195B0F90830B0F90420F2
:1005B000B0F90010B0F90C000090204602F0BEFF28
:1005C0000A480195B0F90830B0F90420B0F90010DC
:1005D000B0F90C000090204602F0B0FF03B030BD2F
:1005E0009496FF1F2095FF1F0096FF1FE895FF1FA1
:1005F0002DE9F047B649B748B74DB84E9CB007F063
:1006000063FEFFF7BDFFB6490EA807F007FF0FCD49
:1006100015AC0FC495E8070084E8070015A9B14898
:1006200002F0A2F8D6F808A0D6F80090504608F0DC
:1006300075FD4FF07C5108F0C5FD0021044608F01F
:1006400073FF002800F00D814FF07C51204608F028
:10065000B1FC08F07DFF0546F468D6F8048020461A
:1006600008F05CFD4FF07C5108F0ACFD00214D44DA
:10067000074608F059FF002800F0208138464FF067
:100680007C5108F097FC08F063FF0746338A01931A
:1006900024B20FFA8AF30FFA89F10FFA88F2009464
:1006A0009048914E02F04AFF08EB070400218D4864
:1006B00002F088FB22B2012329B28A488B4D02F056
:1006C00017FB0EA9874807F0C1FD0EA807F066FECC
:1006D000874907A807F0A2FE0FCD0EAC0FC495E81E
:1006E000070084E807000EA97E4802F03DF8D6F81E
:1006F00008A0D6F80090504608F010FD4FF07C514D
:1007000008F060FD0021044608F00EFF002800F00C
:10071000CC804FF07C51204608F04CFC08F018FFCC
:100720000546F468D6F80480204608F0F7FC4FF040
:100730007C5108F047FD00214D44074608F0F4FEC7
:10074000002800F0A98038464FF07C5108F032FCB8
:1007500008F0FEFE0746338A019324B20FFA8AF3AB
:100760000FFA89F10FFA88F200945E48614E02F0A8
:10077000E5FE08EB070400215A4802F023FB22B2F1
:10078000012329B25748594D02F0B2FA07A955483A
:1007900007F05CFD07A807F001FE574903A807F022
:1007A0003DFE0FCD07AC0FC495E8070084E80700B5
:1007B00007A94C4801F0D8FFD6F808A0D6F8009059
:1007C000504608F0ABFC4FF07C5108F0FBFC0021D8
:1007D000044608F0A9FE002855D04FF07C51204671
:1007E00008F0E8FB08F0B4FE0546F468D6F804808B
:1007F000204608F093FC4FF07C5108F0E3FC002108
:100800004D44074608F090FE002833D038464FF09C
:100810007C5108F0CFFB08F09BFE0746338A01931A
:1008200024B20FFA8AF30FFA88F200940FFA89F1D2
:100830002C4802F083FE08EB07040021294802F04F
:10084000C1FA22B2012329B2264802F051FA03A9C3
:10085000244807F0FBFC03A807F0A0FD1CB0BDE88E
:10086000F0874FF07C51204608F0A2FB08F070FEA4
:100870000546F1E638464FF07C5108F099FB08F048
:1008800067FE0746CAE74FF07C51204608F090FB10
:1008900008F05EFE0546A8E738464FF07C5108F0A8
:1008A00087FB08F055FE074655E74FF07C51204680
:1008B00008F07EFB08F04CFE054632E738464FF064
:1008C0007C5108F075FB08F043FE0746DEE600BFEA
:1008D0006CDA00008C8AFF1FDC710100E895FF1FB5
:1008E00080DA00002095FF1F9496FF1FF871010029
:1008F00088DA00000096FF1F8CDA0000F0B585B0A2
:1009000002AC204605F07CFF94E803001E4E040E66
:100910000C2CB180306031DDA4F10C030C2BC8BF6E
:10092000183C2FDD194D1A4800231946642202F0A5
:10093000DFF9B5F90830B5F90420B5F900102F8AB0
:10094000B5F90C5012488DE8A00002F0F7FD4FF405
:1009500078410F4802F036FA0E490D4801F004FFC5
:1009600001237822A0210A4802F0C2F933790A490A
:100970000748224607F0A8FC05B0F0BD002C08BFD0
:100980000C24CFE71C46CDE72096FF1F5896FF1F8B
:100990002095FF1F08E1000090DA000070B584B0D8
:1009A00002AC204605F02CFF94E803001C4C1D4DC2
:1009B0002060A1801C484FF4784102F003FA012323
:1009C0007822A021184802F093F91849164801F03E
:1009D000CBFEB5F90420B5F90830B5F900102E8A20
:1009E000B5F90C5010488DE8600002F0A7FDE278E0
:1009F0000C2A0EDDA2F10C030C2BC8BF183A0CDD3B
:100A00006179237908480091094907F05DFC04B039
:100A100070BD002A08BF0C22F2E71A46F0E700BFBB
:100A20002096FF1F5896FF1F2095FF1F3072010070
:100A30009CDA000070B50C4D82B0002405262846D3
:100A40002146019400964FF4A073282202F076FD0F
:100A500001940096214628464FF4A0734B2202F0E1
:100A60006DFD02B070BD00BF2095FF1F30B583B093
:100A7000072816D8DFE800F017202428152C0430AA
:100A8000FFF7D8FF164CB4F90830B4F90420B4F9D4
:100A90000010258AB4F90C4012488DE8300002F0AD
:100AA0004DFD03B030BD1049104807F00DFC03B0F8
:100AB000BDE83040FFF7BEBFFFF7BCFF0C4CE2E7DC
:100AC000FFF7B8FF0B4CDEE7FFF7B4FF0A4CDAE79D
:100AD000FFF7B0FF094CD6E7FFF7ACFF084CD2E7B1
:100AE0000C95FF1F2095FF1FACDA00008C8AFF1FBA
:100AF0004496FF1F2C96FF1F8096FF1FC095FF1F77
:100B00000C97FF1F30B585B002A805F079FE1B4891
:100B10001B4CB0F90830B0F90420B0F90010058A78
:100B2000B0F90C008DE82100204602F007FD2046B8
:100B30004FF6E07102F046F900231A4619462046A6
:100B400002F0D6F820460F4901F00EFE02A805F08B
:100B500029FE9DF808109DF80A500B4A009501F5F2
:100B6000FA6100EB400501919DF8093007492046E4
:100B700002EB850207F0A8FB05B030BD6C96FF1FA5
:100B80002095FF1F147201001088FF1FD4DA0000A7
:100B900070B58CB004AB83E803009A49BDF91040EE
:100BA000BDF9125006A805F0B5FC08A805F028FE0E
:100BB000954B1B78072B19D8DFE813F00800C90103
:100BC0004C021B001800A1004201E2028F4B1A6880
:100BD000944203DD59688D4200F3F6858C4B1A6808
:100BE000944203DD59688D4200F3FE8500200CB06D
:100BF00070BD1F21874807F0B1F9874B1A689442EE
:100C000040F3A68359688D4240F3A283986802445A
:100C1000944280F29D83DB6819448D4280F2988370
:100C20007E492B4622467E4807F04EFB9DF8201059
:100C30009DF825509DF824409DF823009DF8223012
:100C40009DF82120039501F5FA610091029401902D
:100C50007449734807F038FB9DF824009DF8201074
:100C60009DF8235001900AAC00209DF822309DF899
:100C70002120029001F5FA612046009505F0C2FCA2
:100C800094E80300C3B2CDB2020E03F5FA63C1F3D8
:100C900007260690ADF81C10009363490295C0F337
:100CA000074301920396C0F307225D4807F00CFB4F
:100CB00006A805F08DFE204605F0A2FD94E803008D
:100CC000C3B2020E03F5FA63C1F30725CCB2089054
:100CD000ADF8241000930192C0F30723C0F307423C
:100CE0005249039502944E4807F0EEFAFFF756FE7C
:100CF0004FF4FA7006F02CF903200CB070BD2121DE
:100D00004B4807F02BF9444B1A68A24280F2C68385
:100D10005968A94280F2C28398680244A24240F313
:100D2000BD83DB681944A94240F3B88322462B46B1
:100D30003A493B4807F0C8FA9DF820109DF8230077
:100D40009DF824409DF822309DF82120019001F566
:100D5000FA61009102943749314807F0B5FA9DF8DD
:100D600021305A1C0C2A01DDA3F10B029DF825400D
:100D70009DF820109DF824009DF8235002940AACA1
:100D80009DF822300190D2B201F5FA61204600951B
:100D900005F038FC94E80300C3B2020ECDB203F5AF
:100DA000FA630690ADF81C10009323490192C0F33A
:100DB0000743C0F307220295194807F085FA06A8F1
:100DC00005F006FE204605F01BFD94E80300C3B2C3
:100DD00003F5FA63020ECCB2009301920890ADF8CD
:100DE00024100294C0F30743C0F3072213490C48B0
:100DF00007F06AFAFFF786FE4FF4FA7006F0A8F8DB
:100E00000520F4E680436D384096FF1F5896FF1F7B
:100E10006C96FF1F68DB00009496FF1F30DC00001B
:100E20008C8AFF1F10DD000030DD000050DD000067
:100E300088DB00004CDC00000CDB000028DB00003D
:100E40001F21C54807F08AF8C44B1A68944240F342
:100E5000988359688D4240F3948398680244944281
:100E600080F28F83DB6819448D4280F28A832246A8
:100E70002B46BB49BB4807F027FA9DF820109DF888
:100E800023009DF824409DF822309DF821200190F8
:100E900001F5FA6100910294B349B24807F014FADF
:100EA0009DF82120B14B9DF82210501E013153F8BE
:100EB0002030994200F3AA84CBB29DF825409DF8DA
:100EC00024009DF820109DF82350029401900AAC54
:100ED00001F5FA612046009505F094FB94E80300C3
:100EE000C3B2020ECDB203F5FA630690ADF81C1042
:100EF00000939F490192C0F30743C0F30722029574
:100F0000984807F0E1F906A805F062FD204605F0D3
:100F100077FC94E80300C3B2020ECCB203F5FA6387
:100F20000890ADF8241000930192C0F30723C0F39A
:100F30000742904902948B4807F0C6F9FFF7E2FD9B
:100F40004FF4FA7006F004F806200CB070BD2021B2
:100F5000894807F003F8814B1A68944240F355839F
:100F600059688D4240F3518398680244944280F25C
:100F70004C83DB6819448D4280F2478322462B461E
:100F80007749784807F0A0F99DF820109DF82300D4
:100F90009DF824409DF82230019001F5FA610091FE
:100FA0009DF82120029470496E4807F08DF99DF854
:100FB0002330581C172801DDA3F117009DF82540A8
:100FC0009DF820109DF824500294C0B20AAC9DF800
:100FD00022309DF82120009001F5FA61204601950C
:100FE00005F010FB94E80300C3B2020ECDB203F586
:100FF000FA630690ADF81C1000935D490192C0F3AE
:101000000743C0F307220295564807F05DF906A88A
:1010100005F0DEFC204605F0F3FB94E80300C3B2C4
:10102000020ECCB203F5FA630890ADF824100093D9
:1010300050490192C0F30723C0F307420294494884
:1010400007F042F9FFF7AAFC4FF4FA7005F080FFB1
:101050000120CCE51F21494806F080FF3F4B1A686C
:10106000944240F38C8159688D4240F3888198689E
:101070000244944280F28381DB6819448D4280F2FD
:101080007E8122462B463649364807F01DF99DF8E9
:1010900020109DF823009DF824409DF822300190F7
:1010A00001F5FA6100919DF8212002942E492D4806
:1010B00007F00AF99DF8243001333B2B40F3A48359
:1010C00000209DF820109DF823509DF825609DF884
:1010D00022309DF8212001900AAC01F5FA612046EA
:1010E0000095029605F08EFA94E80300C3B2020E52
:1010F000CDB203F5FA630690ADF81C1000931C49BD
:101100000192C0F30743C0F307220295154807F088
:10111000DBF806A805F05CFC204605F071FB94E8BE
:101120000300C3B2020ECCB203F5FA630890ADF827
:10113000241000930F490192C0F30723C0F3074224
:101140000294084807F0C0F8FFF728FC4FF4FA7043
:1011500005F0FEFE02204AE5ACDB00009496FF1F7E
:1011600030DC00008C8AFF1F4CDC00006488FF1F0D
:101170000CDB000028DB0000E8DA000048DB0000A0
:101180002021B94806F0EAFEB84B1A68944271DD96
:1011900059688D426EDD9868024494426ADADB68D1
:1011A00019448D4266DA2B462246B149B14807F010
:1011B0008BF89DF820109DF824409DF823009DF8A1
:1011C00022309DF82120029401F5FA6100910190EE
:1011D000A949A84807F078F89DF825409DF8201007
:1011E0009DF824009DF8235002940AAC9DF822300B
:1011F0009DF82120019001F2D1712046009505F063
:1012000001FA94E80300C3B2020ECDB203F5FA630B
:101210000690ADF81C10009398490192C0F3074363
:10122000C0F307220295934807F04EF806A805F090
:10123000CFFB204605F0E4FA94E80300C3B203F5BF
:10124000FA63020ECCB2009301920890ADF824101C
:101250000294C0F30743C0F307228949854807F089
:1012600033F8FFF74FFC4FF4FA7005F071FE0720DA
:101270000CB070BD834B1A68944240F344825968A5
:101280008D4240F3408298680244944280F23B824F
:10129000DB6819448D4280F236822B4622467A4919
:1012A000744807F011F89DF820109DF824409DF82F
:1012B00023009DF822309DF82120029401F5FA6167
:1012C000009101906C496B4806F0FEFF9DF82540A7
:1012D0009DF820109DF824009DF8235002940AAC3C
:1012E0009DF822309DF82120019001F2CF71204617
:1012F000009505F087F994E80300C3B2020ECDB261
:1013000003F5FA630690ADF81C1000935B49019257
:10131000C0F30743C0F307220295564806F0D4FFF6
:1013200006A805F055FB204605F06AFA94E803008C
:10133000C3B203F5FA63020ECCB200930192089097
:10134000ADF824100294C0F30723C0F3074284E7EA
:101350004C4B1A68A24280F2A2815968A94280F2DD
:101360009E8198680244A24240F39981DB68194447
:10137000A94240F394812B462246434953E4414B12
:101380001A68944240F3DC8159688D4240F3D88159
:1013900098680244944280F2D381DB6819448D42FC
:1013A00080F2CE812B4622463749324806F08CFF28
:1013B0009DF824009DF823409DF8201000940138EA
:1013C000C0B20AAC00259DF822309DF82120019082
:1013D00001F5FA612046029505F014F994E803003E
:1013E0000690ADF81C102348284906F06DFF9DF8C3
:1013F00020109DF823009DF821309DF822200190B7
:1014000001F5FA6100911B48214906F05DFF9DF846
:1014100018109DF81B009DF819309DF81A200190B6
:1014200001F5FA61009113481A4906F04DFF06A82C
:1014300005F0CEFA9DF820109DF823009DF821308C
:101440009DF82220019001F5FA61009109481249A6
:1014500006F03AFFFFF7A2FA4FF4FA7005F078FDB4
:101460000220FFF7C4BB00BF0CDC00009496FF1FF6
:1014700030DC00008C8AFF1F4CDC00000CDB00001D
:1014800028DB00000096FF1F68DC000084DC000001
:10149000BCDC0000D8DC0000F4DC0000C34B1A68A0
:1014A000944240F3198159688D4240F31581986840
:1014B0000244944280F21081DB6819448D4280F22C
:1014C0000B8122462B46BA49BA4806F0FDFE9DF82C
:1014D00020109DF823009DF824409DF821200190C4
:1014E00001F5FA6100919DF822300294B249B148A9
:1014F00006F0EAFE9DF82120013A002A40F390818F
:10150000D2B29DF825409DF820109DF824009DF84A
:10151000235002940AAC9DF82230019001F5FA6143
:101520002046009505F06EF894E80300C3B2020E61
:10153000CDB203F5FA630690ADF81C1000939F49F5
:101540000192C0F30743C0F307220295994806F0C1
:10155000BBFE06A805F03CFA204605F051F994E8D8
:101560000300C3B203F5FA63020ECCB200930192FA
:101570000890ADF824100294C0F30723C0F307428B
:1015800034E48A4B1A68944240F3F38059688D42E0
:1015900040F3EF8098680244944280F2EA80DB686E
:1015A00019448D4280F2E58022462B4680498148CD
:1015B00006F08AFE9DF820109DF823009DF8244037
:1015C0009DF822309DF82120019001F5FA610091EB
:1015D00002947949774806F077FE9DF822309DF80D
:1015E0002120013B002B03DC754B511E53F82130A9
:1015F0009DF825409DF8240002949DF820109DF848
:10160000235001900AACDBB262E4684B1A68944242
:101610002CDD59688D4229DD98680244944225DA10
:10162000DB6819448D4221DA22462B466049614825
:1016300006F04AFE9DF820109DF823009DF82440F6
:101640009DF82230019001F5FA6100919DF821206A
:1016500002945949574806F037FE9DF82330581E2A
:10166000002B7FF4ABAC03F11700A7E4554B1A68CD
:1016700094422EDD59688D422BDD986802449442D5
:1016800027DADB6819448D4223DA0220FFF7EEF9EE
:101690004FF4FA7005F05CFC0220FFF7A8BA494B42
:1016A0001A68A242BFF628AB5968A942BFF624AB1C
:1016B00098680244A2427FF71FABDB681944A94235
:1016C0007FF71AAB0120FFF7D1F94FF4FA7005F05C
:1016D0003FFC0120FFF78BBA3A4B1A6894422CDD8D
:1016E00059688D4229DD98680244944225DADB6806
:1016F00019448D4221DA0620FFF7B8F94FF4FA7049
:1017000005F026FC20E42F4B1A6894427FF7AFAD1A
:1017100059688D427FF7ABAD986802449442BFF69A
:10172000A6ADDB6819448D42BFF6A1AD0520FFF7D9
:101730009DF94FF4FA7005F00BFC0520FFF757BA3E
:10174000204B1A689442A7DD59688D42A4DD986841
:1017500002449442A0DADB6819448D429CDA0320EB
:10176000FFF784F94FF4FA7005F0F2FB0320FFF75E
:101770003EBA144B1A6894427FF7E6AB59688D4223
:101780007FF7E2AB986802449442BFF6DDABDB68BA
:1017900019448D42BFF6D8AB0720FFF767F94FF425
:1017A000FA7005F0D5FB0720FFF721BA0096FF1F5E
:1017B00068DC00008C8AFF1F4CDC00000CDB0000A2
:1017C0006488FF1FE895FF1F986802449442BFF6A3
:1017D00005AADB6819448D42BFF600AA0120FFF775
:1017E00045F90120FFF703BA986802449442BFF616
:1017F000FDA9DB6819448D42BFF6F8A90520FFF763
:1018000035F90520FFF7F3B9D8B25AE40A4605487E
:10181000054906F059FD9DF821200123FFF74DBB36
:101820000C226EE68C8AFF1FCCDB00002DE9F04312
:10183000642089B005F08CFB3B4800F013FC60B9D4
:101840003A493B4C0B6822680492049AD21AB2F5CA
:101850007A7F4DD809B0BDE8F083354C354E23680A
:101860000093009A23680193019B32609B1A41F216
:101870008737BB42DFF8C49029D804AD0DF11808B2
:1018800006E023680193019B32689B1ABB421ED875
:101890002549284600F0D6FBBDF91430B3F57A7F10
:1018A000EFDD23680293029B336095E80600404613
:1018B000FEF712FE98E80300FFF76AF989F80000C6
:1018C0000028DED0FFF76AF8FEF792FED9E7FEF7B0
:1018D00057FEFFF7AFF8FFF711F8FFF713F923688A
:1018E00003931249039B0B60002289F80020AAE7AA
:1018F00006AC03F57A7320460B6004F081FF94E890
:1019000003000D4B18609980FFF7FCF80B4B1B7818
:1019100023B9FEF7F3FF09B0BDE8F083FFF73EF807
:1019200009B0BDE8F08300BF0088FF1F1C96FF1FB1
:101930002497FF1F2896FF1F2096FF1F4096FF1F2A
:10194000F0B587B04E4D4F484F4C504E504F0C2184
:101950000D220B23029101920093092207230A21F1
:1019600000F084FE2B6804934A4B049A4A491A609B
:10197000204606F053FD2046484A4949494C06F0A6
:10198000A5FEDFF84CE14849484B49481422226043
:10199000CEF800204FF01F0C3222C4F810C0A26015
:1019A0004FF0B40CE2608A60CA60DA60DC22C4F8EE
:1019B00004C01A604FF6E07464220C619A607824C7
:1019C0004FF4FC62C1F804C0C3F804C00C601A6193
:1019D0004B2105224FF6FF733460364CCEF80410CD
:1019E000CEF808107160B160CEF80C20F260CEF82D
:1019F00010303361416081604FF0E60E28214826A7
:101A0000C2600361C0F800E026606160A1602868E0
:101A1000294E0590DFF8BCE02848E2602361059C70
:101A2000274DCEF80040C2604FF0B20EF260842421
:101A30005A22C6F800E0036104607160214C3361F2
:101A4000B26052234FF4AF765022416081606B60E8
:101A500039460023AE60EA604FF4A0761E221A4891
:101A60002B602B61236063602361E260A66004F059
:101A700051FD3946154804F04DFD07B0F0BD00BFDB
:101A80002497FF1F2095FF1FD495FF1F2C96FF1F43
:101A900080436D381C96FF1F80DA0000FC87FF1F13
:101AA0009D8300009496FF1F0096FF1FE895FF1F7F
:101AB0008096FF1FC095FF1F0C97FF1F0C95FF1FFF
:101AC0005896FF1F6C96FF1F2096FF1F1496FF1F4E
:101AD0004496FF1F2896FF1F70B540F6B83084B0BB
:101AE00005F036FA1C218848884C06F037FA8848F9
:101AF00006F0D2FB1821874806F030FA844806F039
:101B0000CBFB854A8549864802F01EFA00218448AD
:101B100001F064FE4FF6E071814801F053F90222B2
:101B200011467F4801F040F901217D4801F0E8FEAF
:101B3000B4F90C00258AB4F90830B4F90420B4F9DA
:101B400000108DE82100764801F0F8FC00231946CA
:101B50001A46734801F0CCF81321724806F0FEF9DA
:101B60006B4806F099FB4FF47A7005F0F1F96E4876
:101B700004F02EFE20BB0546268AB4F90C00B4F909
:101B80000830B4F90420B4F900108DE8410064482D
:101B900001F0D4FC2B462A462946614801F0A8F8FA
:101BA0001121624806F0DAF9594806F075FB112256
:101BB0005E495B4803F0DAFF594806F06DFBFEE72B
:101BC000594804F073FF14210546594806F0C6F938
:101BD00029464F4806F0C6FB4D4806F05DFBB4F9B8
:101BE0000C00268AB4F90830B4F90420B4F90010C6
:101BF0008DE841004A4801F0A1FC00231A4619462D
:101C0000474801F075F82A464A49454806F05CFB0A
:101C10004FF47A7005F09CF9434804F047FF002820
:101C20004BD102AC20214448444D454E06F096F974
:101C3000374806F031FB434A4349204604F006FD8D
:101C4000204604F0C5FE204604F0DAFD94E80300C7
:101C500064222860A9803D48002108F035F8294613
:101C6000204604F0E5FC20463849FEF711FC21210E
:101C7000374806F073F9264806F00EFB0E2135486A
:101C800006F06CF9314808F01BFB01462F4806F0BE
:101C900065F91F4806F000FB204604F0B1FD2E4B0D
:101CA00094E803001A6802922C4B029AA980040E51
:101CB000286034601A6004B070BD29491448FEF7EA
:101CC000D5FB258AB4F90C00B4F90830B4F9042026
:101CD000B4F900108DE82100114801F02FFC002319
:101CE0001A4619460E4801F003F802AC1C490C488C
:101CF000FEF7BCFB2046134A134904F0A7FC20461C
:101D000004F066FE8EE700BF74DD00006C96FF1FD6
:101D10008C8AFF1F94DD000080841E0080C3C901EF
:101D20002095FF1FB0DD0000E495FF1FC4DD00001B
:101D3000D8DD0000F0DD000050DE00002096FF1F1F
:101D4000FC95FF1F38DE000044DE0000A896FF1F50
:101D500074DE000098DE00002497FF1F1C96FF1F12
:101D600004DE0000884270B41BDD83B28CB21D1B00
:101D70002DB296B29042CCBF9B1BF31A1BB291427C
:101D8000B4BF341BA41B9D4224B205DDA34211DD68
:101D90000A44501070BC7047A54207DD9D42F7DB36
:101DA000F4E78CB283B2E51A2DB2E2E708444010A2
:101DB00070BC70471044401070BC704703786BB122
:101DC0002DE9F04F8F4AC368126885B00392039ED5
:101DD000F31A022B03D805B0BDE8F08F7047DFF887
:101DE00050B29BF80B30F3B172B69BF80B30DD07A5
:101DF000194608D5844CDBF80C1025682940CBF82F
:101E00001810216019469C0709D5804CDBF810306A
:101E100025689BF80B102B40CBF81C30236049073A
:101E200000F1D58062B6DBF800307949DC688C427D
:101E300006D0784F784D794C1F60D9601D611C60C9
:101E400000210446407805F077F8DBF800204FF0D9
:101E50000041B123D1625363D36A002BFCDA4FF007
:101E600000416F4B906BD1625363D36A002BFCDA55
:101E7000956B6C4BC5F3CC054FF00040D06205F676
:101E8000FF715363D36A002BFCDA956BC5F3CC0565
:101E90004D1BB5F5C87F77DB4FF00041614BD16238
:101EA0005363D36A002BFCDA4FF000415E4B906B1A
:101EB000D1625363D36A002BFCDA976B594B4FF016
:101EC0000041D162C7F3CC075363D36A002BFCDA1D
:101ED000906B554B4FF00041D162C0F3CC08536377
:101EE000D36A002BFCDA906B4E4B4FF00041D1626D
:101EF000C0F3CC095363D36A002BFCDA936BC3F3B2
:101F0000CC0A4FF000404949D0625163D16A0029A0
:101F1000FCDA936B01934FF000404FF08051D06298
:101F20005163D16A0029FCDA936B60780093012138
:101F300005F002F89BF80B103D4B084699B1CA0713
:101F400003D53C489B69036008468A0705D53A4B90
:101F5000DBF81C109BF80B001960430703D53749C9
:101F6000DBF820200A60002D3ADBB5F5C87F11DAD6
:101F700000234A2D23813FF72EAFA378FF2B3FF498
:101F80002AAF0023237026E74FF0000AD146D0463F
:101F90005746B6E7019B2581C3F3CC024946384634
:101FA000FFF7E0FE009B0546C3F3CC0251464046D6
:101FB000FFF7D8FEE378E660012B1AD01CD3022B82
:101FC00011D1C5F57F650F35E580A08003E71C4979
:101FD000DBF814300C682340CBF820300B6021E78D
:101FE00000232381C9E7C5F57F65C0F57F600F3504
:101FF0000F30A580E080EEE6C0F57F600F30A08056
:10200000E580E8E62497FF1F80E100E084E100E03E
:102010000320013801403F000320017800003F8089
:10202000C100001091000010D1000010D00000107D
:102030009488FF1F00E100E004E100E008E100E017
:1020400088E100E038B50D4604460846FFF7B6FEC5
:10205000A988B5F90620B5F9083021806280A380EF
:10206000204638BD10B50446FFF7A8FEB4F90800B5
:10207000B0F5C87FB4BF0020012010BD10B4047FAC
:102080004160022CC26002D010BC06F06BB88368BD
:1020900010BC1847F0B4464B464A186BDC6A01790D
:1020A0001170454922790A709A6A00790870002AED
:1020B00046D05968C9688A423ED82168CC8B24042E
:1020C00002F1FF3065D4C0F30E00C883C88B80B224
:1020D000C882196B0968C88B000452D4C2F30E0081
:1020E000C883C88B002480B212F1FF32C88218BFA7
:1020F00001229C62D96A2E4809680D6800F1240407
:10210000A54236D00068C46814F0804F0C680D6892
:1021100015BF248824780235013544F000440D6051
:102120004463196B254B09791970214912B1CA6AA8
:1021300012791A70F0BC7047521A9A620122D9E7DC
:10214000586B196805681E4C0A63CC62CC682D6810
:102150001C4E24F080440327B542CC6083F82570E0
:102160001FD1037F4260022BC2601ED0F0BC05F07D
:10217000F9BF016890F82400CC6840F00040486343
:10218000CFE7CC8BC2F3080004F47E442043C8831D
:10219000A7E7CC8BC0F3080004F47E442043C88337
:1021A00094E72B461146F0BC18478368F0BC1847EB
:1021B0009488FF1F1F8000401C8000401B8000404F
:1021C00000000FFF7D20000090E80C00F0B41C68B8
:1021D00059682568164F174E29432160164D174937
:1021E0001760D66015611160417A154A5C180A3192
:1021F00094F8244053F8215002EBC40149680D6063
:10220000017A5C1803EB8101247ECD6902EBC401E5
:1022100049680D60817A581803EB810390F830000B
:10222000596B02EBC002F0BC53681960704700BFE5
:1022300001401F00011000380110007800001F80CD
:1022400048B8010010B44468002304F13B0212F8BE
:10225000010F884205D00133092BF8D1002010BCB2
:102260007047234410BC93F86C00704770B4466804
:1022700006F13B052846002310F8014F8C4205D09B
:102280000133092BF8D1002070BC7047334493F818
:102290006C000028F8D015F8011F91424FF00003A0
:1022A00006D00133092BEED015F8011F9142F8D169
:1022B000334493F86C302BB118420CBF012000203E
:1022C00070BC70471846DFE7436893F824208A42C1
:1022D00006D093F82530581AB0FA80F040097047BC
:1022E0000120704743681A7E8A4205D05B7E581AE7
:1022F000B0FA80F04009704701207047436893F8B6
:1023000030208A4206D093F83130581AB0FA80F063
:10231000400970470120704710B44468002304F15D
:102320003B0212F8010F884205D00133092BF8D186
:10233000002010BC7047074A02EBC10103F11200F4
:102340004A6854F820101160234410BC93F86C00C4
:10235000704700BF48B80100204A43689A42F0B471
:102360000FD0427A1A4492F82420914207D093F871
:1023700024408C4215D093F825408C422AD0F0BCE2
:1023800070470B2907D00729EBD1154C227842F072
:1023900001022270E5E7124C227822F0010222703D
:1023A000DFE7002421461E685D6836682E420FD0A4
:1023B0000C4D05EBC202002756685A18376092F898
:1023C000242005EBC2050A316A6853F821301360F6
:1023D0004472D4E701242146E5E700BF34DF000062
:1023E0002198FF1F48B801001E4A43689A42F0B482
:1023F0000CD0027A1A44127E914205D01C7E8C4287
:1024000014D05C7E8C422AD0F0BC70470C2907D0D7
:102410000829EED1144C227842F002022270E8E73B
:10242000114C227822F002022270E2E700242146B9
:102430001E685D6836682E420FD00C4D05EBC20257
:10244000002756685A183760127E063105EBC20520
:1024500003EB81036A685B6813600472D4E70124AC
:102460002146E5E734DF00002198FF1F48B801004E
:10247000204A43689A42F0B40FD0827A1A4492F804
:102480003020914207D093F830408C4215D093F819
:1024900031408C422BD0F0BC70470D2907D00E295B
:1024A000EBD1154C227842F004022270E5E7124C81
:1024B000227822F004022270DFE7002421461E6801
:1024C0005D6836682E4210D00C4D05EBC202002725
:1024D00056685A18376092F830200C3105EBC20567
:1024E00003EB81036A685B6813608472D3E701249D
:1024F0002146E4E734DF00002198FF1F48B80100BF
:1025000000207047704700BF10B582B002AB026870
:1025100003F8011D546819460122A04702B010BDFE
:10252000F0B507464FF0010E002003E0D21A44EA4E
:1025300006001BD0CD0801F00703C3F108030EFA13
:1025400003F47D5D013C9A4200FA03F604EA0504B7
:102550001944EBD2012191409B1A45FA03F34D1E19
:1025600000FA02F22B4043EA0200F0BDF0BD00BFCA
:10257000C37A9A0703D5054BC2691A60C37A5B0711
:1025800002D5034B026A1A60704700BF04E100E005
:1025900008E100E0002AF0B5144FDFF858E014BF5E
:1025A0004FF060554FF06455002602E0172C08D01C
:1025B000264637F8022F9EFBF2F2914206F1010403
:1025C000F4D31A0701D545F08065094A5B0752F834
:1025D000262007D5130903F4706322F4704245F0F6
:1025E00000751A4315430560F0BD00BFA6DE00006C
:1025F000D8DE0000006CDC0210B4C37AB3B172B64E
:10260000C37ADC0706D5144AC36814682340836183
:102610001360C37A9A0706D5104A036914682340E9
:10262000C3611360C37A5B070ED462B60368DA68CD
:102630008A4207D00A4818600A4AD96041F08040AF
:1026400018611A6010BC7047074A43691468234038
:1026500003621360E9E700BF80E100E084E100E08D
:1026600001403F0000003F8088E100E0F0B580F8C5
:102670008B109DF81860374C9DF814E080F88C2082
:102680004FF07E550821012280F88A309DF81C7099
:1026900080F867100023C5664FF4A071F02580F81C
:1026A0009160DFF8C0C080F864204FF6FF7680F8B4
:1026B000662080F8592080F8582080F85C20C0F807
:1026C00000C080F890E080F88F700371836080F81C
:1026D000283080F8293080F86530436780F87830FA
:1026E000A0F8843080F85A308384C3840584418400
:1026F000A0F84C60A0F84A6022780366C58543853F
:10270000838501863AB1144B1B78DA0703D5134A47
:10271000134B12681B6822780023F0254FF4A07435
:10272000012143868386C386038780F83E30458730
:10273000848780F83F103AB1074B1B78DB0703D53D
:10274000064A074B12681B68002380F89830C0F8CF
:102750009C30F0BD0898FF1F2098FF1F2497FF1F93
:102760008C98FF1FCCB20100436F01660022A0F8D5
:1027700084201BB1C38C4267063BC384012380F8CD
:10278000643011B10A7B172A00D0704710B54A7B1C
:1027900002F003021A44044690101844C11803FAC8
:1027A00001F101399340013B84F8642084F865000D
:1027B00084F866101F20082190FBF3F091FBF2F2E1
:1027C00084F8672006F0AAFCB4F84A20B4F84C302C
:1027D000E066934205D1B3FA83F35B095B42A4F848
:1027E0004C3010BD2DE9F04F046E85B0002C00F088
:1027F000E1800A2900F0D5800D2900F0C580A57B75
:10280000A94280F0C48094F810C06145C0F0BC803B
:10281000667C8E42C0F0B88094F80FE0CCEB0101EA
:10282000714494F812E0491B01FB0EE1164605467F
:10283000724620681F46FFF773FEA36803EB00088B
:10284000404603220021FFF76BFE002840F09C80E9
:1028500094F8139003214A464046FFF761FE94F82E
:1028600014B0019009F1030949465A464046FFF762
:1028700057FE637D0293D94449461A468246404634
:10288000FFF74EFE029B94F816B05A1E012101FA82
:1028900002F2024218BF994099441ABF421A0292AA
:1028A000029049465A464046FFF73AFE01210BF195
:1028B000FF3201FA02F202421ABF01FA0BF3C31A05
:1028C000034609EB0B014046E27D0393FFF728FE28
:1028D00094F819E03A88039B3188BDF80890BDF858
:1028E00004B095F85C801FFA8AFA72449BB2CAEB76
:1028F0000202D21A494492B289B20AEB020C01EBED
:102900000B0E0FFA8CFC12B20FFA8EFE09B2B8F160
:10291000000F18D0B5F92050754514DA0022328026
:10292000217E3A880A4492B23A8031881A44494456
:1029300092B289B292440BEB010E0FFA8AFC12B2EA
:102940000FFA8EFE09B20E9BB3F900308B42C4BF62
:102950000E9B19800F9BB3F900309342C4BF0F9BAD
:102960001A80109BB3F900307345BCBF109BA3F8CD
:1029700000E0119BB3F900306345BCBF119BA3F885
:1029800000C033881844308005B0BDE8F08FE67B86
:102990008E42FFF438AF94F812E0491B0EFB01F1B0
:1029A00044E700211180217E1A880A441A8005B06C
:1029B000BDE8F08F456F002D65D00A295AD00D294A
:1029C000E2D02E7AB142DFD36F7A8F42DCD36F68C8
:1029D00095F80A8090F85CC0891B07EBC10191F85B
:1029E00006908F7891F803E00E7991F9051009EBC4
:1029F00058084FFA88F8BCF1000F40F08580B3F911
:102A000000A090F85890B2F900C00E9B90F85900C1
:102A1000B3F900501FFA89F401FB04C189B207FB26
:102A2000041709B28D42C4BF0E9D29800F9908FB7F
:102A300000A3B1F900109BB20EFB00301BB299420B
:102A4000C4BF0F990B80109B013FB3F900303FB218
:102A5000BB42BCBF109B1F80119B0138B3F90030F3
:102A600000B28342BCBF119B1880138806FB04365A
:102A7000168089E7148090F85900A97A1A8800FB1B
:102A800001221A8080E70A296BD00D293FF47CAF20
:102A900090F85C10002956D1B2F9001090F85860F7
:102AA000B3F90050062414FB0611109E90F859400B
:102AB000B6F900600139B14205EBC404C4BF109DF2
:102AC00029801199B1F90010013C8C42C4BF1199C1
:102AD0000C800E9CB2F90010B4F900408C42C4BFC7
:102AE0000E9C21800F99B3F90030B1F90010994282
:102AF000C4BF0F990B8090F85830118803EB430343
:102B000001EB430313803FE7B2F900C090F85890FF
:102B1000B0F920B001EB070A09FB0ACADA4502DC6A
:102B2000B3F900A071E71480AC7A90F859A01D8821
:102B30000AFB045A0FFA8AFAA3F800A090F85890FA
:102B4000B2F900C061E7B2F9007090F85810B0F91E
:102B50002060062414FB0171B1420ADCB3F9005075
:102B6000A3E7158090F859101A8802EBC1021A8069
:102B70000AE71580198890F8595001EBC5052DB268
:102B80001D80B2F9006090F8581014FB01618CE7C9
:102B90002DE9F04F89B00024DDF850B0139EBDF848
:102BA00048503380ABF80050169DADF816302C809D
:102BB000159D2C804FF6FF73B0F920E0B0F922701C
:102BC000ADF818E0ADF81A70ADF81C30ADF81E3055
:102BD000A2B3551EADB206460D444C1E0DF11E0AA1
:102BE0000DF11C090DF11A0806AF14F8011F12AB04
:102BF0008DE880070DF116023046FFF7F3FDAC4279
:102C0000F3D1BDF91C20BDF918E0BDF91E30BDF9A6
:102C10001A70724507DB13990132A1F800E015998B
:102C2000CEEB02020A809F4205DC0133169AABF814
:102C30000070DB1B138009B0BDE8F08F4FF0FF334D
:102C40001A46E6E7B0F984308B424FDD2DE9F04FAC
:102C5000D0F874B0C56F9BF80870DBF804809BF85F
:102C60000A40B0F9823090F85960EF1B08EBC70EAC
:102C70009EF9065005EB540414FB063C624532DB1A
:102C80009EF803502C4406FB0434A2422BDA90F841
:102C900058309EF90590B0F980A09EF802E0DBF86C
:102CA000005038F83740CCEB020019FB03A9304440
:102CB000C9EB01010138194490FBF6F21EFB02F248
:102CC000013991FBF3F313449BB205EBD30580224A
:102CD000295D03F0070342FA03F3194214BF0120F0
:102CE0000020BDE8F08F0020BDE8F08F0020704785
:102CF00010B442F20E74A14280F8283080F82930D6
:102D000039D042F20E739A4241D000294ADBB0F921
:102D1000203099421BDA002A81841DDBB0F9223071
:102D20009A4211DAB0F94030C284994204DBB0F91A
:102D300044402344994211DD002380F849300023A8
:102D4000A0F8843010BC70475A1E12B2EAE7591E30
:102D500009B2002A8184E1DA0022E3E7B0F94230C7
:102D60009A42E9DBB0F946100B449A42E4DC0123B5
:102D700080F84930E3E7B0F92010012301EBD1716D
:102D8000194180F8283042F20E739A42BDD1B0F951
:102D90002220012302EBD272002942FA03F280F8CA
:102DA0002930B4DA0021B6E7002908BF0121002A42
:102DB00008BF0122002380F8581080F85920A0F89D
:102DC00084307047A0F84C10A0F84A10704700BF3C
:102DD000C169D0F89400CB6A03F4704213F0F00F8D
:102DE00018BF8B6B8242F6D8704700BF2DE9F04FB9
:102DF00090F88F4083B0FF2CBDF9305000F028814F
:102E000003FB05F404EB4404D0F818B0D0F808E054
:102E1000DFF8A892A34E4FF0000C03E0B8F1170FB3
:102E200008D0C44639F8027F96FBF7F7BB450CF192
:102E30000108F3D39C4E9EF80B7056F82CB0B0F9F5
:102E40003290B0F934A04BF0605877B372B69EF868
:102E50000B70FE070CD5DFF868C2DEF80C60DCF8FA
:102E600000703740CEF81870CCF800709EF80B70E8
:102E7000BE070CD5DFF84CC2DEF81060DCF800703D
:102E80003740CEF81C70CCF800709EF80B707E07AF
:102E90000AD5DFF834C2DEF81460DCF80070374081
:102EA000CEF82070CCF8007062B6DEF80070D7F86B
:102EB0000CE0C6450BD04BF0F04C7C4EDFF80CB26A
:102EC000C7F800B0C7F80C80C7F810C03E60D0F853
:102ED0009C703FB197F800E090F898C02EEA0C0E75
:102EE00087F800E0074690F88E000004924440F016
:102EF0000042F869894442F02A02013B42631FFA0A
:102F000089F9384609EB0308FFF762FF97F88D202F
:102F1000FB6949EA024949F010425A633846FFF713
:102F200057FF97F88D30FA691FFA88F848EA034886
:102F300048F0104353633846FFF74AFF97F88E3046
:102F4000FA691B0443F0004343F02B0353633846F4
:102F5000FFF73EFF97F88D30FA691FFA8AFA013DB4
:102F600055444AEA034A4AF0104353633846FFF790
:102F70002FFF97F88D20FB69ADB245EA024545F079
:102F800010455D633846FFF723FF97F88E30FA69E6
:102F90001B0443F0004343F02E0353633846FFF70E
:102FA00017FF97F88D20FB69120442F000425A6324
:102FB000DA6AC2F30311C2F3033211440131264627
:102FC00000257CB916B3DA6A12F0F00FF9D002AA24
:102FD0002A44986B02F8040C00293CD00139C9B28C
:102FE000002CEFD0DA6AD7F8940002F470428242E3
:102FF00009D8013C4BD097F88D20120442F00042D2
:1030000042F03F025A63002EDBD0DCE7DA6AD400DC
:10301000FCD5D7F89C204FF08051D96222B11178AD
:1030200097F898300B431370BA68D37A83B1D807F6
:1030300003D51F4B91691960D37A990703D51D4BAE
:10304000D1691960D37A5B0702D51B4B126A1A60EB
:1030500003B0BDE8F08F0135EDB2032D06F1FF3668
:10306000AFD19DF804209DF805009DF8065012028E
:10307000C00000F4FC6002F4784202430D9842EA7A
:10308000D5020280024602320D460D9299E797F86A
:103090008D20120442F0006242F03F025A63002E7B
:1030A0008FD090E7006CDC02D8DE000000003F808B
:1030B00000E100E004E100E008E100E0A6DE00003D
:1030C00080E100E084E100E088E100E001403F00B1
:1030D000C26902E013F0F00F10D1D36AD800F9D51D
:1030E0004FF08053D3621160D36A13F0F00F04D015
:1030F000936BD36A13F0F00FFAD17047936BECE740
:103100002DE9F041448EB0F9365021448CB221B201
:103110008D4282B00FDCB0F93A508D420BDD818ECA
:10312000B0F938505618B6B232B2954203DCB0F955
:103130003C10914202DC02B0BDE8F081D0F808807A
:10314000416901221F460546002301A8FFF722FA24
:1031500098F80B30019A002B40F09280D8F800309C
:10316000D968914207D05A4818605A49DA6042F04B
:10317000804018611960D5F89C302BB11A7895F809
:10318000981022EA01021A7095F88E30EA691B0441
:1031900043F0004343F02A0353632846FFF718FE29
:1031A00095F88D30EA6944EA034343F010435363D2
:1031B0002846FFF70DFE95F88D10EB6944EA0141B2
:1031C00041F0104159632846FFF702FE95F88E3012
:1031D000EA691B0443F0004343F02B035363284682
:1031E000FFF7F6FD95F88D30EA6946EA034343F0B0
:1031F000104353632846FFF7EBFD95F88D20EB69EC
:1032000046EA024646F010465E632846FFF7E0FDB8
:1032100095F88E30EA691B0443F0004343F02C0319
:1032200053632846FFF7D4FD95F88D30EA6947EAE5
:10323000034747F0C057116857632846FFF748FF18
:10324000D5F89C3023B1197895F898200A431A7064
:10325000AA68D37A002B3FF46EAFD80703D51E4B74
:1032600091691960D37A990703D51C4BD16919600C
:10327000D37A5B077FF55FAF194B126A1A605AE782
:1032800072B698F80B30D80709D51649D8F80C3023
:1032900008680340C8F818300B6098F80B3099079D
:1032A00009D51149D8F8103008680340C8F81C3017
:1032B0000B6098F80B305B0707D50C49D8F8143031
:1032C00008680340C8F820300B6062B646E700BFCC
:1032D00001403F0000003F8000E100E004E100E029
:1032E00008E100E080E100E084E100E088E100E046
:1032F0002DE9F047878E3A44044697B2B0F938007A
:1033000082B03AB29042BDF8286000F3F58098464A
:10331000638EB4F93A00194489B20DB2854280F245
:10332000EB80B4F93C30934240F3E680B4F9363098
:103330009D4205DAC3EB080841440FFA81F81D46A7
:1033400005EB08038342C4BFC5EB00080FFA88F8F9
:10335000B8F1000F40F3D080D4F8089061690023E1
:10336000012201A8FFF716F999F80B30019AF3B181
:1033700072B699F80B30D80709D56849D9F80C30DE
:1033800008680340C9F818300B6099F80B309907AA
:1033900009D56349D9F8103008680340C9F81C30D2
:1033A0000B6099F80B305B0700F1AE8062B6D9F87C
:1033B0000030D968914207D05A4818605A49DA60FB
:1033C00042F0804018611960D4F89C302BB11A7813
:1033D00094F8981022EA01021A7094F88E30E2698B
:1033E0001B0443F0004343F02A0353632046FFF7D6
:1033F000EFFC94F88D30E2691FFA85FA4AEA03433C
:1034000043F01043536320460AF1FF391FFA88F551
:10341000FFF7DEFCA94494F88D30E2691FFA89F9C0
:1034200049EA034949F0104353632046FFF7D0FCB3
:1034300094F88E30E2691B0443F0004343F02B0301
:1034400053632046FFF7C4FC94F88D30E26947EAE5
:10345000034343F0104353632046FFF7B9FC94F84D
:103460008D20E36947EA024747F010475F63204633
:10347000FFF7AEFC94F88E30E2691B0443F0004382
:1034800043F02C0353632046FFF7A2FCB8F1010F71
:103490000ED094F88D30E26946EA034343F01043BE
:1034A000013D53632046ADB2FFF792FC012DF0D8E9
:1034B00094F88D30E26946EA034646F0C05611683A
:1034C00056632046FFF704FED4F89C3023B11978E8
:1034D00094F898200A431A70A268D37A63B1D80787
:1034E00003D5124B91691960D37A990707D45B070A
:1034F00002D50F4B126A1A6002B0BDE8F0870D4B7F
:10350000D1691960D37AF2E70B49D9F81430086809
:103510000340C9F820300B6048E700BF80E100E0BD
:1035200084E100E001403F0000003F8000E100E056
:1035300008E100E004E100E088E100E02DE9F04F5F
:103540000446408EB4F93AE0014489B285B008B22D
:103550007045BDF93860BDF83C5080F20C811F46C3
:10356000A38EB4F93CC013449BB21AB2624580F2F8
:103570000281B4F9368000EB0709C14540F3FB80B6
:10358000B4F938A002EB060BD34540F3F480404574
:10359000C0F2FD8001915245C0F2F0809846CE45C0
:1035A00003DA019BC3EB0E073FB2DC45D4F8089069
:1035B0006169B8BFC8EB0C064FF000034FF0010281
:1035C00003A8B8BF36B2FEF7E5FF99F80B30039AAF
:1035D000F3B172B699F80B30D80709D57749D9F805
:1035E0000C3008680340C9F818300B6099F80B30AC
:1035F000990709D57249D9F8103008680340C9F80D
:103600001C300B6099F80B305B0700F1CE8062B67E
:10361000D9F80030D968914207D06A4818606A49E1
:10362000DA6042F0804018611960D4F89C302BB108
:103630001A7894F8981022EA01021A7094F88E30E1
:10364000E26901991B0443F0004343F02A035363EA
:10365000204601F1FF3AFFF7BBFB019994F88D304A
:10366000E26941EA034343F0104353632046FFF706
:10367000AFFBBA4494F88D30E2691FFA8AFA4AEA3D
:10368000034343F0104353632046FFF7A1FB94F834
:103690008E30E2691B0443F0004343F02B03536375
:1036A0002046FFF795FB94F88D30E26948EA034322
:1036B00043F010435363204608F1FF39FFF788FBBE
:1036C000B14494F88D30E2691FFA89F949EA03435D
:1036D00043F0104353632046FFF77AFB94F88E3093
:1036E000E2691B0443F0004343F02C03536320467C
:1036F000FFF76EFB002E26DD012FC8BFB84611DD97
:1037000094F88D30E26945EA034343F0104308F131
:10371000FF38536320460FFA88F8FFF759FBB8F1DA
:10372000010FEDD194F88D30E26945EA034343F08F
:10373000C05311685363013E2046FFF7C9FCB3B282
:103740001EB2002BD8D1D4F89C3023B1197894F84C
:1037500098200A431A70A268D37A63B1D80703D5B8
:103760001A4B91691960D37A990719D45B0702D56E
:10377000174B126A1A6005B0BDE8F08F1FFA8AF87D
:10378000C8EB060633441EB206EB0A0B07E71FFA26
:1037900088F03F1A39440FB2019007EB0809FAE6A6
:1037A0000C4BD1691960D37AE0E70B49D9F8143092
:1037B00008680340C9F820300B6028E780E100E08A
:1037C00084E100E001403F0000003F8000E100E0B4
:1037D00008E100E004E100E088E100E010B582B01B
:1037E0000022B0F922400191B0F920300094114636
:1037F000FFF7A4FE02B010BD2DE9F04F87B0804660
:10380000119D0495129D109C059522B9002967D140
:1038100007B0BDE8F08F17460026BDF914200291CD
:1038200003EB04094FF0010A3446BDF910B00392CE
:1038300007E016B1029A002A43D1013400262B4634
:10384000C5B15D1E0AFA05F23A42F2D1C3EB090195
:10385000091B23B25A4609B2404634B1B8F84AE0CF
:10386000039C8DE81040FFF769FE013600242B46CB
:10387000002DE6D174B1B8F84A30BDF91420019397
:10388000C4EB0901009209B223B2BDF910204046F1
:10389000FFF754FE002EBBD0029B002BB8D0B8F827
:1038A0004C00BDF91430BDF910201093C6EB09018E
:1038B000119009B233B2404607B0BDE8F04FFFF7B0
:1038C0003DBEC3EB0901B8F84C20039B0093891B54
:1038D000019209B233B25A464046FFF72FFEACE7D9
:1038E000B0F84C201192BDF914201092BDF91020AF
:1038F0001BB221B207B0BDE8F04FFFF71FBE00BFFB
:1039000001F00301F8B5826880F85A10044647694F
:10391000964D974E002102E0172808D0014635F851
:10392000023F96FBF3F39F4201F10100F4D391486B
:10393000D37A50F8211041F06050BBB172B6D37AFF
:10394000DD0706D58C4DD3682E68334093612B601C
:10395000D37A9F0706D5894D13692E683340D3610A
:103960002B60D37A5E0700F1C88062B61368DA680C
:10397000824207D041F0F041814D824A1D60D860FB
:1039800019611A60D4F89C302BB11A7894F8981009
:1039900022EA01021A7094F88E30E2691B0443F0A7
:1039A000004343F0360353632046FFF711FA94F8BF
:1039B0005A30032B17D8DFE813F0A700C400BA0071
:1039C000040094F88D30E2691B0443F00063116831
:1039D00043F0E80353632046FFF77AFB4FF4A072ED
:1039E000F02322846384D4F89C3023B1197894F8AE
:1039F00098200A431A70A268D37A83B1DD0703D5F1
:103A0000614B91691960D37A980703D55F4BD169EF
:103A10001960D37A590702D55D4B126A1A60B4F95E
:103A20002200B4F93460B4F92050B4F93230208661
:103A3000321859198242A8BF0246A942A8BF294696
:103A4000AB42A8BF2B4621EAE1718642A8BF0646D9
:103A500022EAE27209B223EAE37300278B4212B230
:103A600026EAE6766785A7851DBFB71AB7FA87F7F6
:103A70007F090127A287E58584F83E70002B3AD1A3
:103A80008D426CD0434E84F83F3033783BB1424B8B
:103A90001B78DA0703D5414A414B12681B680023A3
:103AA00025EAE57211B2984261876386A386E386B0
:103AB000238750DD9A420CBF07460746A08708BF00
:103AC00001238D4204BFC01BB0FA80F084F83E3061
:103AD00033780CBF4009002084F83F003BB12E4BE7
:103AE0001B78DB0703D52D4A2D4B12681B6800237A
:103AF000A384E384F8BD0023C4E72A4D53692E68EC
:103B0000334013622B6030E794F88D30E2691B0478
:103B100043F00063116843F0480353632046FFF706
:103B2000D7FAF0224FF4A073228463845BE794F801
:103B30008D30E2691B0443F00063116843F0880391
:103B4000EBE794F88D30E2691B0443F000631168E1
:103B500043F028033EE7A38700270123B1E7002EA7
:103B600090D1831AB3FA83F35B098BE7A6DE0000DA
:103B7000006CDC02D8DE000080E100E084E100E0BF
:103B800001403F0000003F8000E100E004E100E070
:103B900008E100E00898FF1F2098FF1F2497FF1FEF
:103BA0008C98FF1F88E100E02DE9F04F42F20E777C
:103BB00085B0B94204469946BDF938600F9D00F0C2
:103BC0003E8142F20E739A4200F03181678EB4F961
:103BD0003A3039448FB239B2994280F22581B4F833
:103BE0003480B4F93C0090440FFA88F8804580F2A4
:103BF0001B81B4F9362001EB090E964540F3148180
:103C0000B4F938C006EB080AE24540F30D81E045FF
:103C10000BDAC8EB0C08C8EB060636B208FB09F84D
:103C200005EB480506EB0C0AE04650451FFA88F8FC
:103C3000BCBFC8EB000006B29142C0F20B814FF04E
:103C4000000A734580F20381DB1B9BB21FFA89F2E5
:103C5000D21A92B200920FFA83F9D4F808B06169CF
:103C60000023012203A8FEF795FC9BF80B30039A72
:103C7000F3B172B69BF80B30D80709D58249DBF84F
:103C80000C3008680340CBF818300B609BF80B3001
:103C9000990709D57D49DBF8103008680340CBF857
:103CA0001C300B609BF80B305B0700F1E48062B6C0
:103CB000DBF80030D968914207D075481860754923
:103CC000DA6042F0804018611960D4F89C302BB162
:103CD0001A7894F8981022EA01021A7094F88E303B
:103CE000E2691B0443F0004343F02A03791E536347
:103CF00001EB090292B220460192FFF769F894F8AD
:103D00008D30E16947EA034343F010434B6320469B
:103D1000FFF75EF894F88D30019AE16942EA0343B7
:103D200043F010434B632046FFF752F894F88E306F
:103D3000E2691B0443F0004343F02B035363204626
:103D4000FFF746F894F88D30E26948EA034343F000
:103D500010435363204608F1FF3BFFF739F8B344A3
:103D600094F88D30E2691FFA8BFB4BEA034343F072
:103D7000104353632046FFF72BF894F88E30E26926
:103D80001B0443F0004343F02C0353632046FFF72A
:103D90001FF8002E30DD009B5F0002374FEA4A0A11
:103DA000B9F1010F554414DDC84694F88D1035F86B
:103DB000023BE26943EA014343F0104308F1FF3854
:103DC000536320460FFA88F8FFF702F8B8F1010FA5
:103DD000EBD194F88D102B88E26943EA014343F05C
:103DE000C05311685363013E2046FFF771F9B3B227
:103DF0003D441EB2002BD3D1D4F89C3023B11978A6
:103E000094F898200A431A70A268D37A63B1D8074D
:103E100003D5214B91691960D37A990726D45B07A2
:103E200002D51E4B126A1A6005B0BDE8F08FB4F9D6
:103E30002220921B02EBD27242F34F02C6E6B0F987
:103E40002010C91A01EBD17141F34F01B9E60023EB
:103E5000009302E791B2CF1B1FFA87FACAEB090958
:103E60000FFA89F909EB020E0F46EAE60C4BD1690D
:103E70001960D37AD3E70B49DBF8143008680340A4
:103E8000CBF820300B6012E780E100E084E100E035
:103E900001403F0000003F8000E100E008E100E059
:103EA00004E100E088E100E02DE9F04782B0B0F9DC
:103EB0004430B0F946208A46B0F942100446580012
:103EC00008300AEB01050A4420F00700954202AFD2
:103ED000A8BF1FFA8AF9ADEB000D24DA02AE1FFA73
:103EE0008AF94FF00108B4F9401001962AB2204631
:103EF000CDF80080FEF77AFFC9EB0502B4F9443033
:103F0000B4F94010019612B2CDF800802046FFF7B8
:103F10004BFEB4F94210B4F94620B4F944300135EF
:103F20000A44AA42DFDCB4F84E00B4F94010019014
:103F3000C9EB0202CDF800A012B22046FFF7FEFA4C
:103F4000BD46BDE8F08700BF2DE9F047044684B0C8
:103F500061619048A26194F89010FEF7B5F90028CD
:103F600000F09C8194F88F10FF2905D08948FEF756
:103F7000B9F9002800F09281864D94F891102846F6
:103F8000FEF7BCF9002800F08981834AE2614FF412
:103F90004053002128462174C4F8943094F89010BE
:103FA000A560FEF7D9F994F89110A068FEF760FAC1
:103FB00094F88F10FF2902D0A068FEF715FAA068C8
:103FC0004368E360FEF700F994F88C2094F88B10B6
:103FD000A068FEF74BF90546002800F07E8194F8B2
:103FE0008B10A068FEF798F994F88C1084F88D0077
:103FF0000546A068FEF790F9284384F88E0094F8EF
:104000008A00FF281AD0012102F09CFF012194F8B8
:104010008A0002F091FF052002F09AFF002194F837
:104020008A0002F089FF142002F092FF94F88A00BF
:10403000012102F081FF962002F08AFF6569DFF816
:104040008081A268554FAD084646002102E017283E
:1040500008D0014636F8023F97FBF3F3AB4201F17B
:104060000100F4D8DFF85C91D37A59F8211041F0BF
:104070006050BBB172B6D37ADF0706D5484DD3681E
:104080002E68334093612B60D37A9E0706D5454D49
:1040900013692E683340D3612B60D37A5D0700F13A
:1040A000468162B61368DA68824207D041F0F04177
:1040B0003D4D3E4A1D60D86019611A60D4F89C30AD
:1040C0002BB11A7894F8981022EA01021A70384D30
:1040D0004FF0040A94F88E106B78E26943EA0143CA
:1040E00043F0004353632046FEF772FEAAF1020636
:1040F000BAF1010FF6B205F1020700F0EC80F31CF3
:104100001D44BA461AF8013B94F88D10E26943EA5F
:10411000014343F0004353632046FEF759FEAA458E
:10412000F0D1751C3D4495F800A0BAF1000FD1D133
:1041300094F88E30E2691B0443F0006343F01103EE
:10414000116853632046FEF7C3FFD4F89C3023B1B7
:10415000197894F898200A431A70A268D37A83B128
:10416000D80703D5134B91691960D37A990703D502
:10417000114BD1691960D37A5B0702D50F4B126AD4
:104180001A60782002F0E4FE044E6569A2680021FE
:104190001DE000BF9488FF1F00C00240006CDC02DD
:1041A00080E100E084E100E001403F0000003F804A
:1041B000B0B1010000E100E004E100E008E100E04E
:1041C000A6DE0000D8DE0000172808D0014638F827
:1041D000023F96FBF3F39D4201F10100F4D359F83D
:1041E0002110D37A41F06050BBB172B6D37ADF07A9
:1041F00006D5594DD3682E68334093612B60D37A2E
:104200009E0706D5554D13692E683340D3612B6048
:10421000D37A5D0700F1848062B61368DA6882425F
:1042200007D041F0F0414E4D4E4A1D60D8601961F3
:104230001A60D4F89C302BB11A7894F8981022EABE
:1042400001021A7094F88E30E2691B0443F0006397
:1042500043F02903116853632046FEF739FFD4F871
:104260009C3023B1197894F898200A431A70A268F8
:10427000D37A83B1D80703D53B4B91691960D37AC0
:10428000990703D5394BD1691960D37A5B0702D5F9
:10429000374B126A1A6004B0BDE8F08742213548F6
:1042A00003F05CFE344803F0F7FF94F88B0094F8B9
:1042B000911094F88C5094F88F3094F890200190DD
:1042C000009102952D492C4803F0FEFF04B0BDE893
:1042D000F04703F0F7BE3D4625E794F88C10A06840
:1042E000FDF7B0FF50B394F88C1084F88D50A0689F
:1042F000FEF712F8012184F88E0094F88B0002F08A
:1043000021FE94F88B101E4B012253F83130C4F873
:104310009C3084F898201A7842F001021A706EE6F8
:10432000184D53692E68334013622B6074E7154DA6
:1043300053692E68334013622B60B2E684F88D0017
:1043400084F88E003621104803F008FE0A4804B0B5
:10435000BDE8F04703F0A0BF80E100E084E100E0A9
:1043600001403F0000003F8000E100E004E100E088
:1043700008E100E054B201008C8AFF1F98B20100EE
:1043800048B8010088E100E01CB201000D2900F0EE
:1043900088812DE9F04F436F1C7AA14297B0C0F09D
:1043A00077815A7A914200F273815E680C1B06EBAA
:1043B000C4021546109292780D921746EA780E9232
:1043C0001546002F00F06781002D00F06481109DDC
:1043D0009F7A95F906E090F85C2095F905B00EEB10
:1043E00057050395B0F924E052B10D9F90F858207D
:1043F000B0F920505F4407FB02E2AA4200F33E827C
:104400001FFA8EF205461391B0F84A00B5F84C1029
:1044100036F83440079488421C68049400F04781C1
:104420001099688E0E790D9995F8584059441044AA
:1044300080B28E4206FB04FEACBF00EB0E0101FB16
:10444000040107B20BFB040000B2BBF1000F02979E
:1044500009B20890C0F2A68302980590B5F93A9087
:104460000598484580F21E81B5F9340095F85980C9
:10447000B5F926409F7A95F978A0B5F93CC0044477
:104480001FFA88F317FB08F60AFB034000EB5600FF
:1044900086B20FFA86FBE34580F20481B5F9360057
:1044A000884200F3FF8007FB0363B5F938001BB2B5
:1044B000984200F3F7806345B5F98220A8BF6346B0
:1044C000494511930B46A8BF4B46A2420693AC68E0
:1044D00069691CBF0023A5F884300122002315A8B8
:1044E000FEF758F820461599FEF786F8D5F89C3067
:1044F0002BB11A7895F8981022EA01021A70B5F9D2
:104500003690059B95F88E20B5F93840E9694B4502
:10451000039BA8BFBDF814904FEA0242A3EB5707D4
:1045200042F0004242F02A02CAEB07034A6313FB3F
:1045300008F3B8BF1FFA89F92846A345B4BFA4B24F
:104540003446DFB2FEF744FC95F88D20EB6949EA6A
:10455000024242F010425A632846FEF739FC069B9D
:1045600095F88D10EA69013B9BB243EA014343F0A1
:10457000104353632846FEF72BFC95F88E30EA690A
:104580001B0443F0004343F02B0353632846FEF71C
:104590001FFC95F88D30EA6944EA034343F0104369
:1045A00053632846FEF714FC119B95F88D10EA69B9
:1045B000013B9BB243EA014343F010435363284657
:1045C000FEF706FC95F88E30EA691B0443F00043C1
:1045D00043F02C03536328467C1EFEF7F9FBE4B23C
:1045E000002F00F06181A4B2771C2744DDF814A0ED
:1045F000DDF818903FB2B5F938305B4500F34981DA
:10460000B5F93C305B4540F34481CA4580F24181B5
:10461000D04613E0B5F8863095F88D10EA6943EA84
:10462000014343F0104353632846FEF7D1FB08F1E2
:1046300001080FFA88F8C84580F22B81B5F93630A9
:10464000434541465A462846F1DCFEF7FBFA00286E
:10465000E0D1029B4345CCBFB5F88830B5F84C306B
:10466000DAE7029B0E9A01330293DBB20AF1010AE8
:104670009A421FFA8AFA27D81FFA8EF20023A5F869
:104680008430109B197995F8583001FB0322AA84D5
:1046900017B0BDE8F08F20293FF499AE17B0BDE800
:1046A000F08F70477244AA8417B0BDE8F08F0E9B5C
:1046B000002BE3D04FF000094F464E46CDF808904E
:1046C000BDF80CA0DDF81C900D9B002BC9D01C463A
:1046D0004FF000081EE0FF2E6AD006F0F003F02B2A
:1046E00000F0818006F0E003E02B00F0978006F0F8
:1046F000C003C02B41D031061ED401221346E41A58
:1047000098441F44964014F0FF045FFA88F8FFB203
:10471000F6B2A6D0780706D1049A09F1010312F87F
:1047200009601FFA83F9072CD5D8032CD5D8D9D026
:10473000022CDCD03106E0D5B5F8583040F2011239
:10474000934200F0878095F85920E98C95F858300D
:10475000B5F84A00009212FB0AF20A440BEB08017A
:1047600001FB03E112B2019009B22846FEF7E6FE12
:1047700001221346B5F924E0C1E795F85920E98CE8
:1047800095F85830B5F84A00009212FB0AF20A4434
:104790000BEB080101FB03E112B25B00019009B2CF
:1047A0002846FEF7CBFE02221346B5F924E0A6E721
:1047B00095F85920E98C95F85830B5F84A000092E0
:1047C00012FB0AF20A440BEB080101FB03E112B2EF
:1047D000DB00019009B22846FEF7B0FE082213461E
:1047E000B5F924E08BE795F85920E98C95F8583015
:1047F000B5F84A00009212FB0AF20A440BEB0801DA
:1048000001FB03E112B29B00019009B22846FEF7BA
:1048100095FE04221346B5F924E070E795F8592077
:10482000E98C95F85830B5F84A00009212FB0AF26C
:104830000A440BEB080101FB03E112B203EB430353
:10484000019009B22846FEF779FE03221346B5F916
:1048500024E054E70398EA8CB5F84A300244029801
:104860000EEB08010244594412B209B22846FEF781
:1048700047FC01221346B5F924E040E70022828478
:104880009F7A90F859E0C58C0EFB0755C584964673
:10489000B8E50BF1010B0FFA8BFB5F457FF4ABAE74
:1048A000331901330FFA83FB0E9B002B00F0E880D5
:1048B000B5F93C305B4540F3E380059A0899CDF8A3
:1048C0002CB08A42B8BF0A4600210846129112B2A3
:1048D00095F859100F9209900A90002900F04C8128
:1048E0005B4540F3CD800D9B099A1344DBB20393E3
:1048F000B5F938305B4500F3F580059B089A934283
:1049000025DA059C089E10E0B5F8863095F88D10E4
:10491000EA6943EA014343F0104353632846FEF734
:1049200057FA013424B2A64211DDB5F93630A3425C
:10493000F7DCB5F93A30A34221465A462846F0DD65
:10494000FEF780F90028DFD1B5F84C30DEE70D9B8B
:10495000002B00F01F81039B95F85810DDF83CA058
:10496000099A0A9EDDF81C900C93571C5207FFB25F
:1049700006D1049B09F1010213F809601FFA82F9BC
:10498000A9B354464FFA86F816E0B5F8863095F884
:104990008D10EA6943EA014343F01043536328460C
:1049A000FEF716FA95F858100134A4B2CAEB0403C6
:1049B000DBB2994224B219D9B5F93630A342F3DCFF
:1049C000B5F93A30A342EFDDB8F1000F40DB5A46AB
:1049D00021462846FEF736F90028D6D1029BA3428D
:1049E000CCBFB5F88830B5F84C30D0E7A246039B71
:1049F00076009F423A46F6B2B7D1069B9A452CDA2A
:104A0000029F069C12E0B5F8863095F88D10EA6991
:104A100043EA014343F0104353632846FEF7D8F9B5
:104A20000AF1010A0FFA8AFAA24516DAB5F9363008
:104A3000534551465A462846F2DCFEF703F9002852
:104A4000E1D15745CCBFB5F88830B5F84C30DCE73C
:104A500095F88D10B5F84A309BE795F859100B9BE7
:104A60000BF1010B1FFA8BFBC3EB0B03DBB299427B
:104A70000FFA8BFB79D9B5F93C305B453FF738AF7E
:104A8000119B5B453BDD059FDDF80880069EB5F96F
:104A900038305B452CDCB7422ADA3C4610E0B5F8EA
:104AA000863095F88D10EA6943EA014343F01043DC
:104AB00053632846FEF78CF9013424B2B44217DA66
:104AC000B5F93630A34221465A462846F4DCFEF7B3
:104AD000B9F80028E3D1A045CCBFB5F88830B5F8C7
:104AE0004C30DEE7099B0C930A9EDDF81C90B6E77C
:104AF0000BF1010B119B0FFA8BFB5B45C7DC95F8A3
:104B00008E30EA691B0443F0006311685363284642
:104B1000FEF7DEFAD5F89C3023B1197895F8982085
:104B20000A431A70A868C37A33B1DB0702D5204B59
:104B300082691A60FDF71CFDE88CAA8C698EAB8E29
:104B4000139CEC6703441144B5F84A40B5F84C0097
:104B5000BDF81860A5F88460A5F88010A5F882302B
:104B6000A5F88640A5F888008BE50C9B09930A966A
:104B7000CDF81C90CDF82CB0129B0E9A0133DBB20D
:104B80009A4212933FF47CAFB5F93C305B453FF756
:104B9000A4AE75E7099B0C930A9EDDF81C90DDF826
:104BA0003CA02AE7089805900020089056E400BF32
:104BB00000E100E02DE9F04F056EAC7B8C4295B032
:104BC00007D8EB7B994204D8AA7C091B02FB01F1B0
:104BD0000FE02E7CB142C0F05F826B7C994200F204
:104BE0005B82EB7BAA7C01330B449B1B191B02FBF2
:104BF00001F183462868FDF793FCAB6803EB000ADC
:104C0000504603220021FDF78BFC002840F044822F
:104C1000EC7C032122465046FDF782FC2E7D0334B6
:104C20002146324680465046FDF77AFC95F81590AD
:104C30000690344421464A465046FDF771FC012255
:104C400009F1FF3302FA03F30342AF7D0CBF049076
:104C500002FA09F204EB090618BF831A31463A46F4
:104C6000504618BF0493FDF75BFC7B1E012202FA3D
:104C700003F303421EBFBA40831A0893EB7D08BFBB
:104C800008903E441A46314650460593FDF748FCCD
:104C9000BBF92430049A0790002BB7BF00231F46AE
:104CA0001F46ABF82430D71900F10282BBF920303F
:104CB00007EB08029A429BF85C3040F3F081002B2E
:104CC00000F0EA81049B002BB6BF049B00235B42EB
:104CD000ABF824302A7EBBF8263013441BB2ABF865
:104CE000263000279BF84820002A35D09BF8492021
:104CF00092B3BBF94000BBF9442008EB0701024422
:104D000091420FDD049A002AB7BF049AABF8240041
:104D1000C2F10009ABF824902A7E13441BB2ABF811
:104D200026300027BBF94220BBF94610687E0A44B2
:104D3000121A934210DD297E5846FFF7B5F8DBF8CA
:104D40006050BBF826302A7EBBF84010ABF8241028
:104D50009B1A1BB2ABF82630BBF922209A4240F3D3
:104D60009B81059A6C7E0698BBF84C10BBF84AE014
:104D7000059032441C449146089A241A7145A4EBCC
:104D8000020400F0A781BBF93220BBF92410BBF963
:104D90003AE0BBF936600496D019074607980897A1
:104DA0000A4410184744B842B8BF38467045A8BFF7
:104DB0007046461E0E900C963046049EB042C0F2DD
:104DC0007C8108988242A8BF024622EAE272964598
:104DD0000D9240F37281BBF934E02A7E069EBBF946
:104DE0003C00BBF93850744409947344D418099AB0
:104DF000B218A242B8BF224682421446A8BF044657
:104E00001094013CAC420A94C0F25781099A934233
:104E1000A8BF134623EAE374844280F24E81DBF894
:104E20000830DBF814101E460122002313A8FDF7FA
:104E3000B1FB30461399FDF7DFFBDBF89C302BB15B
:104E40001A789BF8981022EA01021A709BF88E30AB
:104E5000DBF81C201B0443F0004343F02A03536398
:104E60005846FDF7B5FF0D9E9BF88D30DBF81C20F2
:104E700046EA034343F0104353635846FDF7A8FF47
:104E80009BF88D10BDF83030DBF81C2043EA01435D
:104E900043F0104353635846FDF79AFF9BF88E305A
:104EA000DBF81C201B0443F0004343F02B03536347
:104EB0005846FDF78DFFAC429BF88D30DBF81C2087
:104EC000B8BF2C4644EA034343F0104353635846AB
:104ED000FDF77EFF9BF88D30BDF82820DBF81C1015
:104EE00042EA034343F010434B635846FDF770FF1B
:104EF0009BF88E30DBF81C201B0443F0004343F08A
:104F00002C035363049BB342B8BF334658461193F6
:104F1000FDF75EFF099BA3422DDDCDF81090CDF883
:104F20002C80DDF83090119E0E9DCDF828A0D8463B
:104F3000BB46099FB145A8BFB24611DB98F88D105A
:104F4000B8F84C30D8F81C2043EA014343F0104332
:104F50000AF1010A53634046FDF73AFFAA45EDD135
:104F60000134A742E6D15F46DDF81090DDF828A0B5
:104F7000C346DDF82C809BF86430012B40F206829A
:104F800009F1070323F00709069B002B40D0CDF859
:104F90001090CDF828A00597099DDDF83490DDF834
:104FA00038A00C9F1E464FF000084F4528DB4C46AA
:104FB000BBF93630A34220DCBBF93A30A3421CDDFA
:104FC000BBF93830AB4218DCBBF93C30AB4214DDE6
:104FD000089BA342584603DC059BA34200F38E8145
:104FE0009BF88D10BBF84C20DBF81C3042EA0142E4
:104FF00042F010425A63FDF7EBFE01345445D7D11D
:10500000013E05F10105D0D1099A069B134409938D
:10501000119A0E9B09999B1A109A561A03FB06F3D4
:10502000012B03F1FF340FDD9BF88D10BBF84C30E2
:10503000DBF81C2043EA014343F010435363584616
:10504000FDF7C6FE013CEFD19BF88D10BBF84C304C
:10505000DBF81C2043EA014343F0C053116853635B
:105060005846FEF735F8DBF89C3023B119789BF8E9
:1050700098200A431A70DBF80800C37A33B1DB07C3
:1050800002D5C04B82691A60FDF772FABBF8243072
:10509000079A1A44ABF8242015B0BDE8F08F002B16
:1050A00040F0EA809BF8483063B9BBF9263053E6FC
:1050B0009B1AABF824300027F8E5079B1944ABF89E
:1050C0002410E9E79BF84920BBF92630002A3FF479
:1050D00043AE27E69BF86400012840F2D080421ED0
:1050E00001239340059A09F1070626F00706002AD6
:1050F000CCD0DBB219461319089300233A46CDF8F9
:1051000018800F469846069B002B40D008EB0309F9
:105110000599089B5B1A444604939BF86730B4FBDF
:10512000F3F5F10803FB1545013B5B1B13FB00F393
:105130001AF801C09BF86650D9B24CFA01F32B4023
:10514000BB42C8EB040E04F101041CD3BBF832507F
:10515000BBF9363015447544ADB229B28B4212DC2E
:10516000BBF93A308B420EDDBBF834E0049BBBF94F
:10517000381073449BB20FFA83FE714503DCBBF910
:105180003C10714508DC4C450644C6D1A046059B41
:10519000013B0593B7D179E79BF88EE0DBF81C0063
:1051A0000A934FEA0E4E4EF0004141F02A01BBF83F
:1051B0004A30416358460B920993FDF709FE9BF86C
:1051C0008DE0DBF81C0045EA0E4E4EF010414163C5
:1051D0005846FDF7FDFD9BF88DE0DBF81C0045EA25
:1051E0000E4545F0104545635846FDF7F1FD9BF827
:1051F0008E50DBF81C002D0445F0004545F02B05D2
:1052000045635846FDF7E4FD9BF88D500A9BDBF89B
:105210001C0043EA054545F0104545635846FDF737
:10522000D7FD9BF88D500A9BDBF81C0043EA054331
:1052300043F0104343635846FDF7CAFD9BF88E00C8
:10524000DBF81C30000440F0004040F02C005863B4
:105250005846FDF7BDFD9BF88D00099ADBF81C3020
:1052600042EA004141F0104158465963FDF7B0FD54
:105270009BF864000B9A86E7BBF9263032E5059B64
:10528000002BC8BF04977FF701AF4FEAD9026FEA3E
:1052900009031AF8022003F0070342FA03F3DA07BE
:1052A00009F1010122D4012789460026C6EB080531
:1052B000202DA8BF202549462A465046FDF730F943
:1052C000049B0297F1180246009101942B462E444C
:1052D00000215846FEF790FAB045A944E6D8059B50
:1052E000DB1B002B05933C44CFDCCFE6032250466A
:1052F000FDF716F909F10401871CD5E79BF8673023
:105300009BF86420B8FBF3F1049803FB1181013B87
:105310005B1AC00813FB02F30A9A115C9BF8660043
:10532000DBF854200B92DBB241FA03F3184003F090
:10533000F5FEDBF86C1003F045FF04F02FF90B9A33
:10534000DBF850301049C0B29B1A03FB00F302EBAC
:10535000531319409BF88D00DBF81C2041EA1141E2
:105360008BB243EA004343F0104353635846FDF7C2
:105370002FFD04989BF86430C31808F101080493CA
:105380003BE600BF00E100E01FF8E007069B002BB2
:105390007FF73EAE099ECDF810A04FEAD9030499DD
:1053A0006FEA0902CB5C02F00702134113F001031C
:1053B00009F10102099240F0A5800A93731C0B9336
:1053C0000E9B01330F93BBF93870B74224DCBBF955
:1053D0003C30B34220DD089D0D9CA54203DC1BE060
:1053E0000134A54216D0BBF93630A342F8DCBBF934
:1053F0003A30A342F4DD9BF88D10BBF84C30DBF85B
:105400001C2043EA014343F0104353635846FDF721
:10541000DFFCE5E7BBF93870089CDDF824904FF01D
:10542000000ACAEB0805202D28BF202549462A4638
:105430000498FDF775F8B742014632DCBBF93C2011
:10544000B2422EDD6A1E012313FA02F228D05B4617
:105450000695B346054617461E46B6F93620A242C3
:1054600014DCB6F93A20A24210DD3D4296F88D00D8
:1054700014BFB6F84A10B6F84C10F26941EA004180
:1054800041F0104151633046FDF7A2FC7F0804F162
:105490000104E2D13346069DB3F938705E469B465F
:1054A000A944AA44D045BCD8BE421ADBBBF93C3063
:1054B000B34216DD0C9B9C4204F1010511DC0F9CEC
:1054C0009BF88D10BBF84C30DBF81C2043EA0143FD
:1054D00043F01043013553635846FDF779FCA5426C
:1054E000EED10B9B0A9A01361344B3427FF46BAFA3
:1054F000059B0A9A013B9B1A002B05933FF74DAF82
:10550000099685E5099904980322FDF709F809F140
:1055100004030993431C02300A937FF44FAFDDF874
:1055200024903AE72DE9F04F95B0BDF878509DF8FA
:10553000804003942F4624B20595BDF87C50049515
:1055400006949DF88450099504EB440464002E46AB
:105550000D19002D40F38E8136B24FEAC60E02EBD4
:105560000E05002D089640F385810792049A974214
:105570009A4605468B4600F08081438EB0F93A107A
:105580005B449BB21AB28A4217460A9280F2728139
:10559000AA8E0798B5F93CC0104482B216B266458F
:1055A00080F26881B5F936003C448442BB4640F342
:1055B0006181B5F938800696B644C64540F35A81F4
:1055C000039C04EB4409099C87424FEA49094FEACE
:1055D000C40EC0F27F820FFA89F91F46CB448B4577
:1055E00002DDC91B0FFA81F94645C0F2B4820FFAF9
:1055F0008EF49346069BD5F8088069692344634579
:10560000C8BFCBEB0C044FF000034FF0010213A80E
:10561000C8BF24B2FCF7BEFF40461399FCF7ECFF6D
:10562000D5F89C302BB11A7895F8981022EA01022F
:105630001A7095F88E30EA691B0443F0004343F07A
:105640002A03536328467B1E9944FDF7C1FB95F856
:105650008D30EA6947EA034343F010435363284619
:10566000FDF7B6FB95F88D30EA691FFA89F949EA2A
:10567000034343F0104353632846FDF7A9FB95F815
:105680008E30EA691B0443F0004343F02B0353635D
:105690002846FDF79DFB95F88D30EA694BEA0343F8
:1056A00043F010430BF1FF3853632846FDF790FB9E
:1056B000444495F88D30EA691FFA84F848EA0343B8
:1056C00043F0104353632846FDF782FB95F88E3074
:1056D000EA691B0443F0004343F02C030AEB8A0100
:1056E000536328460C460B91FDF772FBAF4A631DCE
:1056F00013440C9308230D9301230693AB46BBF987
:105700003C20B24240F38D80099B002B7ED0099B48
:105710005A1ED2B20132324413B20793BBF9382079
:10572000B2426ADC039B089603F1FF380B9B0A9C8C
:105730001A469E4B02EB030A5E46D346DDF830A0C4
:105740005FFA88F81BF8012B069B1A42059B049A06
:1057500018BF1F46039B08BF17462BB3A5B208F11D
:1057600001022A440FFA82F903E0013424B2A14570
:1057700016D0B6F93630A342F7DCB6F93A30A34278
:10578000F3DD96F88D20F36947EA024242F01042B9
:1057900001345A63304624B2FDF71AFBA145E8D123
:1057A00005EB0804013424B2D345CBD1039BB346A7
:1057B000089E13B35D1EEDB2013525442DB203E002
:1057C000013424B2AC4218D0BBF93630A342F7DC26
:1057D000BBF93A30A342F3DD9BF88D300499DBF836
:1057E0001C2041EA034343F01043013453635846FD
:1057F00024B2FDF7EDFAAC42E6D10136079B36B292
:10580000B34203D0BBF93C20B24287DC069B0D9A21
:105810005B00DBB2013A069312F0FF030D937FF4B5
:105820006EAF9BF88E30DBF81C201B0443F0006346
:10583000116853635846FDF74BFCDBF89C305D461E
:1058400023B119789BF898200A431A70AB68DA7A6A
:1058500082B1D00703D5564A99691160DA7A910767
:1058600003D5544AD9691160DA7A520702D5524AEF
:105870001B6A136015B0BDE8F08F039B012B00F08D
:10588000CE80BDF80C3049490D9118460C460523D1
:10589000810042000E46119113FB0A311AFB03F3FB
:1058A00017B20E93821823460B440A9202469019AF
:1058B0000F93AA460823059D0B9710900493012788
:1058C0004FF0000891460D9B0E9A0F989A180023EE
:1058D00012F8011B394218BF43F001035B009042EC
:1058E000DBB2F5D15B10DCB2002B00F0EF801F2C97
:1058F00000F08480BDF824201FFA88F303931E2C47
:1059000012FB03F30C9308BF00211FD0079A0597E1
:1059100003EB0208089F0FFA88F8002604F01C0326
:105920001C2B04F018024FEA440106F1010345D094
:10593000182A53D0E20626D4CCB21EB2002C33D0A3
:105940001E2CEBD116FB09F6059FB1B207980C9BF4
:105950000195034459441AB2089B009309B2119B64
:105960005046FDF7EBFD049B039A013B9BB27F0081
:1059700002F101080493FFB20FFA88F8002BA2D1BC
:1059800015B0BDE8F08F06FB09B1A400B6B20195D1
:10599000009709B2069B424650460236E4B2FDF734
:1059A000CDFD36B2002CCBD1059FDCE7DCB2010087
:1059B00000E100E004E100E008E100E006FB09B1DD
:1059C000B6B20195009709B20A9B4246504604368A
:1059D0002401FDF7B3FD36B2E4B2AFE706FB09B12F
:1059E000B6B20195009709B20B9B4246504603366A
:1059F000E400FDF7A3FD36B2E4B29FE7099B079AE6
:105A0000019508FB0322089B00931FFA88F412B249
:105A1000109B039459465046FDF790FDA3E7099B60
:105A2000012B7FF42EAF05234F4ABDF81C90099F30
:105A30000D9213FB0A381AFB03F3049390444FF0C2
:105A4000000A0D9B049A9A18002312F8011B394290
:105A500018BF43F001035B009045DBB2F5D15B104A
:105A6000DCB23BB31F2C6CD01E2C4FF0000616D0BE
:105A70000FFA89F3039304F01C031C2B04F01802A3
:105A80004FEA440106F101033BD0182A49D0E00651
:105A900029D4CCB21EB26CB11E2CECD1B6B2059B8F
:105AA000009306EB0B0109B204230FFA89F2284692
:105AB000FDF71EFC0AF1010A7F0009F10109BAF1A4
:105AC000080FFFB21FFA89F9BBD1D3E61FFA88F39A
:105AD000039348E784B2C4EB090999440FFA89F9A2
