:1000000000800020BD010000E96F0000A16F00002A
:10001000A16F0000A16F0000A16F0000A16F0000A0
:10002000A16F0000A16F0000A16F0000E96F000048
:10003000E96F0000A16F00005583000059830000A4
:10004000E96F0000E96F0000E96F0000E96F000050
:10005000E96F0000E96F0000E96F0000E96F000040
:10006000E96F0000E96F0000E96F0000E96F000030
:10007000E96F0000E96F0000E96F0000E96F000020
:10008000E96F0000E96F0000E96F0000E96F000010
:10009000E96F0000E96F0000E96F0000E96F000000
:1000A000DD670000E9670000E96F0000E96F00000C
:1000B000E96F0000E96F0000E96F0000E96F0000E0
:1000C000E96F0000E96F0000E96F0000E96F0000D0
:1000D000E96F0000E96F0000E96F0000E96F0000C0
:1000E000E96F0000E96F0000E96F0000E96F0000B0
:1000F000E96F0000E96F0000E96F0000E96F0000A0
:10010000E96F0000E96F0000E96F0000E96F00008F
:10011000E96F0000E96F0000E96F0000E96F00007F
:10012000E96F0000E96F0000E96F0000E96F00006F
:10013000E96F0000E96F0000E96F0000E96F00005F
:10014000E96F0000E96F0000E96F0000E96F00004F
:10015000E96F0000E96F0000E96F0000E96F00003F
:10016000E96F0000FD750000E96F0000E96F000015
:10017000E96F0000E96F0000E96F0000E96F00001F
:10018000E96F0000E96F0000E96F0000E96F00000F
:10019000E96F0000E96F0000E96F0000E96F0000FF
:1001A000E96F0000E96F0000E96F0000E96F0000EF
:1001B000E96F0000E96F0000E96F0000564B4CF258
:1001C000205210B51A804DF628121A8000BF00BFC9
:1001D00006F00EFF514B4FF010621A60504A9A60C1
:1001E000504ADA60504A136813F4807304D14F49BF
:1001F0000B604FF4A85313604D4B1A78110703D5C9
:100200001A7842F008021A704A4B4B492A221A7097
:100210004A4A4B4B8B4204D252F8040F43F8040B6A
:10022000F8E7484B484900228B4202D243F8042B9E
:10023000FAE74649464A002352F8230041F82300D2
:1002400001336F2BF8D1434B434A802103F8011B44
:100250009342FBD1414B3D4A1A60414B8A221A70AE
:10026000A3F5805324225A70A0221A709A7992071B
:10027000FCD59A79D406FCD43A4A937903F00C035E
:10028000082B384BF9D103221A7140225A719A79FE
:100290009006FCD5334A9179324B4906FBD5324A58
:1002A000324911600221516020221A709A7902F0BD
:1002B0000C020C2AFAD12E4B2E4A1A602E4B2F4AD2
:1002C0001A6000225A60072243F8042C2C4AC3F813
:1002D0000C2D62B607F004F8144B1B68DA0705D53D
:1002E000284806F0E9FF284B284A1A60284B1B785B
:1002F0005B0609D5244C254B22689A4204D121483B
:1003000006F0DAFF0023236006F078FE09F098FB80
:1003100008F02AF8FEE700BF0E20054030800440B8
:10032000823F04000100002B10D0034014D0034092
:1003300002D0074000E007409095FF1FB0BD0100CC
:100340002087FF1F9095FF1F3499FF1F0082FF1F1A
:100350000000000000E400E05FE400E008ED00E0E1
:100360000050064000400640448004400000030165
:1003700004800440C010050014E000E0FF76010096
:10038000000020200F4311661CE00340A5C3945ACF
:1003900000F00740FFFFFFFFFFFFFFFFFFFFFFFF32
:1003A000FFFFFFFFFFFFFFFFFFFFFFFFFFFFFFFF5D
:1003B000FFFFFFFFFFFFFFFFFFFFFFFFFFFFFFFF4D
:1003C000FFFFFFFFFFFFFFFFFFFFFFFFFFFFFFFF3D
:1003D000FFFFFFFFFFFFFFFFFFFFFFFFFFFFFFFF2D
:1003E000FFFFFFFFFFFFFFFFFFFFFFFFFFFFFFFF1D
:1003F000FFFFFFFFFFFFFFFFFFFFFFFFFFFFFFFF0D
:10040000FFFFFFFFFFFFFFFFFFFFFFFFDEF9FFFF23
:1004100010B5054C237833B9044B13B10448AFF33E
:1004200000800123237010BD9095FF1F0000000085
:10043000ACBD0100084B10B51BB108490848AFF32B
:1004400000800848036803B910BD074B002BFBD0A0
:10045000BDE81040184700BF000000009495FF1F42
:10046000ACBD01009095FF1F0000000038B50446A8
:1004700008460D460AF044F92368024629465B689F
:10048000204698470546204607F09CFF284438BD83
:100490002DE9F041044686B0884606F01BFB25781E
:1004A0006179637827790A4A0491E678A478009400
:1004B00000EB400E05F5FA650195404602EB8E0211
:1004C0000397029603490AF081F806B0BDE8F0816F
:1004D0001088FF1F6CDB000010B483B002AB03E98F
:1004E00006002949BDF90030B1F920200024A3F607
:1004F000AE63A24202FB03F38480244A35DBA3F2FD
:100500002B6382FB0342D418002B4FEAE372A2EB69
:10051000E42200DD013AB1F92210BDF90230028077
:10052000A3F61C63002901FB03F3194A0EDBA3F2B7
:10053000E25382FB0321002B4FEAE372A2EBA122DC
:100540000EDD531E438003B010BC704703F2E2532C
:1005500082FB0321002B4FEAE372A2EBA12211DD03
:100560001346438003B010BC704703F22B6382FB39
:100570000342D418002B4FEAE372A2EBE422CADC58
:100580000132C8E7531CDDE7C095FF1F25DD04A637
:10059000D57F085730B51748174CB0F90830B0F977
:1005A0000420B0F90010B0F90C0083B000250090D1
:1005B0000195204603F058F810480195B0F908302D
:1005C000B0F90420B0F90010B0F90C0000902046FA
:1005D00003F04AF80A480195B0F90830B0F9042050
:1005E000B0F90010B0F90C000090204603F03CF880
:1005F00003B030BD3497FF1FC095FF1FA096FF1FAB
:100600008896FF1F2DE9F047B649B748B74DB84E59
:100610009CB007F0F3FEFFF7BDFFB6490EA807F048
:1006200097FF0FCD15AC0FC495E8070084E80700CD
:1006300015A9B14802F02EF9D6F808A0D6F8009016
:10064000504608F005FE4FF07C5108F055FE0021A1
:10065000044609F003F8002800F00D814FF07C51AA
:10066000204608F041FD09F00DF80546F468D6F87B
:100670000480204608F0ECFD4FF07C5108F03CFE71
:1006800000214D44074608F0E9FF002800F02081D2
:1006900038464FF07C5108F027FD08F0F3FF07467D
:1006A000338A019324B20FFA8AF30FFA89F10FFA11
:1006B00088F200949048914E02F0D6FF08EB0704B0
:1006C00000218D4802F014FC22B2012329B28A488D
:1006D0008B4D02F0A3FB0EA9874807F04DFE0EA834
:1006E00007F0F6FE874907A807F032FF0FCD0EACE2
:1006F0000FC495E8070084E807000EA97E4802F0C1
:10070000C9F8D6F808A0D6F80090504608F0A0FD29
:100710004FF07C5108F0F0FD0021044608F09EFFE8
:10072000002800F0CC804FF07C51204608F0DCFC23
:1007300008F0A8FF0546F468D6F80480204608F0C3
:1007400087FD4FF07C5108F0D7FD00214D4407464E
:1007500008F084FF002800F0A98038464FF07C5153
:1007600008F0C2FC08F08EFF0746338A019324B2DA
:100770000FFA8AF30FFA89F10FFA88F200945E48B3
:10078000614E02F071FF08EB070400215A4802F0A5
:10079000AFFB22B2012329B25748594D02F03EFB6C
:1007A00007A9554807F0E8FD07A807F091FE57494B
:1007B00003A807F0CDFE0FCD07AC0FC495E80700E6
:1007C00084E8070007A94C4802F064F8D6F808A0AE
:1007D000D6F80090504608F03BFD4FF07C5108F0F1
:1007E0008BFD0021044608F039FF002855D04FF05A
:1007F0007C51204608F078FC08F044FF0546F46878
:10080000D6F80480204608F023FD4FF07C5108F014
:1008100073FD00214D44074608F020FF002833D027
:1008200038464FF07C5108F05FFC08F02BFF07467C
:10083000338A019324B20FFA8AF30FFA88F20094F4
:100840000FFA89F12C4802F00FFF08EB0704002192
:10085000294802F04DFB22B2012329B2264802F0BA
:10086000DDFA03A9244807F087FD03A807F030FE4E
:100870001CB0BDE8F0874FF07C51204608F032FCF8
:1008800008F000FF0546F1E638464FF07C5108F0CD
:1008900029FC08F0F7FE0746CAE74FF07C512046D6
:1008A00008F020FC08F0EEFE0546A8E738464FF0B9
:1008B0007C5108F017FC08F0E5FE074655E74FF0BD
:1008C0007C51204608F00EFC08F0DCFE054632E7BD
:1008D00038464FF07C5108F005FC08F0D3FE07467F
:1008E000DEE600BF94DB00002C8BFF1F08730100C5
:1008F0008896FF1FA8DB0000C095FF1F3497FF1FDD
:1009000024730100B0DB0000A096FF1FB4DB0000E1
:10091000F0B585B002AC204606F00AF994E8030071
:100920001E4E040E0C2CB180306031DDA4F10C039E
:100930000C2BC8BF183C2FDD194D1A48002319464F
:10094000642202F06BFAB5F90830B5F90420B5F964
:1009500000102F8AB5F90C5012488DE8A00002F063
:1009600083FE4FF478410F4802F0C2FA0E490D4859
:1009700001F090FF01237822A0210A4802F04EFAEC
:1009800033790A490748224607F038FD05B0F0BD23
:10099000002C08BF0C24CFE71C46CDE7C096FF1FF4
:1009A000F896FF1FC095FF1F34E20000B8DB00007F
:1009B00070B584B002AC204606F0BAF894E80300A3
:1009C0001C4C1D4D2060A1801C484FF4784102F062
:1009D0008FFA01237822A021184802F01FFA184943
:1009E000164801F057FFB5F90420B5F90830B5F9FC
:1009F00000102E8AB5F90C5010488DE8600002F006
:100A000033FEE2780C2A0EDDA2F10C030C2BC8BFDA
:100A1000183A0CDD6179237908480091094907F0FB
:100A2000EDFC04B070BD002A08BF0C22F2E71A46A4
:100A3000F0E700BFC096FF1FF896FF1FC095FF1F8D
:100A40005C730100C4DB000070B50C4D82B0002463
:100A5000052628462146019400964FF4A0732822CB
:100A600002F002FE01940096214628464FF4A0733E
:100A70004B2202F0F9FD02B070BD00BFC095FF1F10
:100A800030B583B0072816D8DFE800F017202428F7
:100A9000152C0430FFF7D8FF164CB4F90830B4F920
:100AA0000420B4F90010258AB4F90C4012488DE8EE
:100AB000300002F0D9FD03B030BD1049104807F0F6
:100AC0009DFC03B0BDE83040FFF7BEBFFFF7BCFFA1
:100AD0000C4CE2E7FFF7B8FF0B4CDEE7FFF7B4FF83
:100AE0000A4CDAE7FFF7B0FF094CD6E7FFF7ACFF97
:100AF000084CD2E7AC95FF1FC095FF1FD4DB000068
:100B00002C8BFF1FE496FF1FCC96FF1F2097FF1F23
:100B10006096FF1FAC97FF1F30B585B002A806F0A6
:100B200007F81B481B4CB0F90830B0F90420B0F9A5
:100B30000010058AB0F90C008DE82100204602F073
:100B400093FD20464FF6E07102F0D2F900231A46D9
:100B50001946204602F062F920460F4901F09AFE3C
:100B600002A805F0B7FF9DF808109DF80A500B4A3F
:100B7000009501F5FA6100EB400501919DF80930FF
:100B80000749204602EB850207F038FC05B030BD6E
:100B90000C97FF1FC095FF1F407301001088FF1FB7
:100BA000FCDB000070B58CB004AB83E803009A490D
:100BB000BDF91040BDF9125006A805F047FE08A87F
:100BC00005F0B6FF954B1B78072B19D8DFE813F01B
:100BD0000800C9014C021B001800A1004201E202FA
:100BE0008F4B1A68944203DD59688D4200F3F685F5
:100BF0008C4B1A68944203DD59688D4200F3FE85E0
:100C000000200CB070BD1F21874807F03DFA874BCC
:100C10001A68944240F3A68359688D4240F3A28338
:100C200098680244944280F29D83DB6819448D42A7
:100C300080F298837E492B4622467E4807F0DEFBF1
:100C40009DF820109DF825509DF824409DF8230024
:100C50009DF822309DF82120039501F5FA6100915D
:100C6000029401907449734807F0C8FB9DF8240072
:100C70009DF820109DF8235001900AAC00209DF8AB
:100C800022309DF82120029001F5FA61204600955E
:100C900005F054FE94E80300C3B2CDB2020E03F592
:100CA000FA63C1F307260690ADF81C100093634960
:100CB0000295C0F3074301920396C0F307225D48F3
:100CC00007F09CFB06A806F01BF8204605F030FF55
:100CD00094E80300C3B2020E03F5FA63C1F30725DB
:100CE000CCB20890ADF8241000930192C0F3072312
:100CF000C0F307425249039502944E4807F07EFB29
:100D0000FFF756FE4FF4FA7006F072FB03200CB0AA
:100D100070BD21214B4807F0B7F9444B1A68A24235
:100D200080F2C6835968A94280F2C283986802445F
:100D3000A24240F3BD83DB681944A94240F3B88363
:100D400022462B463A493B4807F058FB9DF82010B5
:100D50009DF823009DF824409DF822309DF8212025
:100D6000019001F5FA61009102943749314807F08A
:100D700045FB9DF821305A1C0C2A01DDA3F10B0222
:100D80009DF825409DF820109DF824009DF82350E3
:100D900002940AAC9DF822300190D2B201F5FA61BA
:100DA0002046009505F0CAFD94E80300C3B2020E88
:100DB000CDB203F5FA630690ADF81C1000932349F9
:100DC0000192C0F30743C0F307220295194807F0C8
:100DD00015FB06A805F094FF204605F0A9FE94E84F
:100DE0000300C3B203F5FA63020ECCB20093019282
:100DF0000890ADF824100294C0F30743C0F3072213
:100E000013490C4807F0FAFAFFF786FE4FF4FA7020
:100E100006F0EEFA0520F4E680436D38E096FF1FF9
:100E2000F896FF1F0C97FF1F94DC00003497FF1FFC
:100E30005CDD00002C8BFF1F3CDE00005CDE000050
:100E40007CDE0000B4DC000078DD000038DC00004F
:100E500054DC00001F21C54807F016F9C44B1A687E
:100E6000944240F3988359688D4240F39483986884
:100E70000244944280F28F83DB6819448D4280F2F1
:100E80008A8322462B46BB49BB4807F0B7FA9DF838
:100E900020109DF823009DF824409DF822309DF8F5
:100EA0002120019001F5FA6100910294B349B24802
:100EB00007F0A4FA9DF82120B14B9DF82210501E96
:100EC000013153F82030994200F3AA84CBB29DF847
:100ED00025409DF824009DF820109DF82350029491
:100EE00001900AAC01F5FA612046009505F026FD57
:100EF00094E80300C3B2020ECDB203F5FA63069084
:100F0000ADF81C1000939F490192C0F30743C0F352
:100F100007220295984807F071FA06A805F0F0FE3E
:100F2000204605F005FE94E80300C3B2020ECCB2E1
:100F300003F5FA630890ADF8241000930192C0F312
:100F40000723C0F30742904902948B4807F056FAF2
:100F5000FFF7E2FD4FF4FA7006F04AFA06200CB0F3
:100F600070BD2021894807F08FF8814B1A689442A0
:100F700040F3558359688D4240F351839868024489
:100F8000944280F24C83DB6819448D4280F247839F
:100F900022462B467749784807F030FA9DF8201012
:100FA0009DF823009DF824409DF82230019001F522
:100FB000FA6100919DF82120029470496E4807F073
:100FC0001DFA9DF82330581C172801DDA3F11700E6
:100FD0009DF825409DF820109DF824500294C0B241
:100FE0000AAC9DF822309DF82120009001F5FA61AD
:100FF0002046019505F0A2FC94E80300C3B2020E5E
:10100000CDB203F5FA630690ADF81C1000935D496C
:101010000192C0F30743C0F307220295564807F038
:10102000EDF906A805F06CFE204605F081FD94E878
:101030000300C3B2020ECCB203F5FA630890ADF818
:101040002410009350490192C0F30723C0F30742D4
:101050000294494807F0D2F9FFF7AAFC4FF4FA705E
:1010600006F0C6F90120CCE51F21494807F00CF82D
:101070003F4B1A68944240F38C8159688D4240F38B
:10108000888198680244944280F28381DB68194425
:101090008D4280F27E8122462B463649364807F043
:1010A000ADF99DF820109DF823009DF824409DF88F
:1010B0002230019001F5FA6100919DF821200294FF
:1010C0002E492D4807F09AF99DF8243001333B2B27
:1010D00040F3A48300209DF820109DF823509DF834
:1010E00025609DF822309DF8212001900AAC01F581
:1010F000FA6120460095029605F020FC94E8030072
:10110000C3B2020ECDB203F5FA630690ADF81C101F
:1011100000931C490192C0F30743C0F307220295D4
:10112000154807F06BF906A805F0EAFD204605F022
:10113000FFFC94E80300C3B2020ECCB203F5FA63DD
:101140000890ADF8241000930F490192C0F30723D3
:10115000C0F307420294084807F050F9FFF728FC53
:101160004FF4FA7006F044F902204AE5D8DC00009A
:101170003497FF1F5CDD00002C8BFF1F78DD000023
:101180006488FF1F38DC000054DC000014DC000021
:1011900074DC00002021B94806F076FFB84B1A68CD
:1011A000944271DD59688D426EDD98680244944224
:1011B0006ADADB6819448D4266DA2B462246B14969
:1011C000B14807F01BF99DF820109DF824409DF8C8
:1011D00023009DF822309DF82120029401F5FA6148
:1011E00000910190A949A84807F008F99DF8254009
:1011F0009DF820109DF824009DF8235002940AAC1D
:101200009DF822309DF82120019001F2D1712046F5
:10121000009505F093FB94E80300C3B2020ECDB233
:1012200003F5FA630690ADF81C10009398490192FB
:10123000C0F30743C0F307220295934807F0DEF896
:1012400006A805F05DFD204605F072FC94E8030059
:10125000C3B203F5FA63020ECCB200930192089078
:10126000ADF824100294C0F30743C0F30722894964
:10127000854807F0C3F8FFF74FFC4FF4FA7006F00B
:10128000B7F807200CB070BD834B1A68944240F346
:10129000448259688D4240F34082986802449442E7
:1012A00080F23B82DB6819448D4280F236822B4605
:1012B00022467A49744807F0A1F89DF820109DF85D
:1012C00024409DF823009DF822309DF821200294AF
:1012D00001F5FA61009101906C496B4807F08EF8B6
:1012E0009DF825409DF820109DF824009DF823507E
:1012F00002940AAC9DF822309DF82120019001F261
:10130000CF712046009505F019FB94E80300C3B2A5
:10131000020ECDB203F5FA630690ADF81C100093EF
:101320005B490192C0F30743C0F307220295564878
:1013300007F064F806A805F0E3FC204605F0F8FB8A
:1013400094E80300C3B203F5FA63020ECCB2009333
:1013500001920890ADF824100294C0F30723C0F363
:10136000074284E74C4B1A68A24280F2A281596876
:10137000A94280F29E8198680244A24240F399817A
:10138000DB681944A94240F394812B462246434925
:1013900053E4414B1A68944240F3DC8159688D4212
:1013A00040F3D88198680244944280F2D381DB688C
:1013B00019448D4280F2CE812B462246374932486D
:1013C00007F01CF89DF824009DF823409DF820109C
:1013D00000940138C0B20AAC00259DF822309DF877
:1013E0002120019001F5FA612046029505F0A6FA48
:1013F00094E803000690ADF81C102348284906F035
:10140000FDFF9DF820109DF823009DF821309DF8E8
:101410002220019001F5FA6100911B48214906F054
:10142000EDFF9DF818109DF81B009DF819309DF8F0
:101430001A20019001F5FA61009113481A4906F04B
:10144000DDFF06A805F05CFC9DF820109DF8230048
:101450009DF821309DF82220019001F5FA6100915C
:101460000948124906F0CAFFFFF7A2FA4FF4FA70D2
:1014700005F0BEFF0220FFF7C4BB00BF38DD00004F
:101480003497FF1F5CDD00002C8BFF1F78DD000010
:1014900038DC000054DC0000A096FF1F94DD000043
:1014A000B0DD0000E8DD000004DE000020DE00000A
:1014B000C34B1A68944240F3198159688D4240F336
:1014C000158198680244944280F21081DB681944C7
:1014D0008D4280F20B8122462B46BA49BA4806F06B
:1014E0008DFF9DF820109DF823009DF824409DF865
:1014F0002120019001F5FA6100919DF822300294BB
:10150000B249B14806F07AFF9DF82120013A002A3D
:1015100040F39081D2B29DF825409DF820109DF8AF
:1015200024009DF8235002940AAC9DF822300190CB
:1015300001F5FA612046009505F000FA94E80300F1
:10154000C3B2020ECDB203F5FA630690ADF81C10DB
:1015500000939F490192C0F30743C0F3072202950D
:10156000994806F04BFF06A805F0CAFB204605F097
:10157000DFFA94E80300C3B203F5FA63020ECCB2BB
:10158000009301920890ADF824100294C0F3072351
:10159000C0F3074234E48A4B1A68944240F3F38064
:1015A00059688D4240F3EF8098680244944280F27B
:1015B000EA80DB6819448D4280F2E58022462B46A2
:1015C0008049814806F01AFF9DF820109DF82300FD
:1015D0009DF824409DF822309DF82120019001F5CE
:1015E000FA61009102947949774806F007FF9DF867
:1015F00022309DF82120013B002B03DC754B511E4E
:1016000053F821309DF825409DF8240002949DF860
:1016100020109DF8235001900AACDBB262E4684BC5
:101620001A6894422CDD59688D4229DD986802447D
:10163000944225DADB6819448D4221DA22462B4692
:101640006049614806F0DAFE9DF820109DF82300FD
:101650009DF824409DF82230019001F5FA61009137
:101660009DF8212002945949574806F0C7FE9DF87D
:101670002330581E002B7FF4ABAC03F11700A7E416
:10168000554B1A6894422EDD59688D422BDD9868BF
:101690000244944227DADB6819448D4223DA02209F
:1016A000FFF7EEF94FF4FA7005F0A2FE0220FFF703
:1016B000A8BA494B1A68A242BFF628AB5968A9429A
:1016C000BFF624AB98680244A2427FF71FABDB68E9
:1016D0001944A9427FF71AAB0120FFF7D1F94FF463
:1016E000FA7005F085FE0120FFF78BBA3A4B1A68B5
:1016F00094422CDD59688D4229DD98680244944259
:1017000025DADB6819448D4221DA0620FFF7B8F9A3
:101710004FF4FA7005F06CFE20E42F4B1A689442E7
:101720007FF7AFAD59688D427FF7ABAD9868024443
:101730009442BFF6A6ADDB6819448D42BFF6A1AD59
:101740000520FFF79DF94FF4FA7005F051FE0520D2
:10175000FFF757BA204B1A689442A7DD59688D42AB
:10176000A4DD986802449442A0DADB6819448D42F3
:101770009CDA0320FFF784F94FF4FA7005F038FE85
:101780000320FFF73EBA144B1A6894427FF7E6AB8A
:1017900059688D427FF7E2AB986802449442BFF6E5
:1017A000DDABDB6819448D42BFF6D8AB0720FFF7ED
:1017B00067F94FF4FA7005F01BFE0720FFF721BA16
:1017C000A096FF1F94DD00002C8BFF1F78DD00002A
:1017D00038DC00006488FF1F8896FF1F9868024469
:1017E0009442BFF605AADB6819448D42BFF600AAF1
:1017F0000120FFF745F90120FFF703BA986802447A
:101800009442BFF6FDA9DB6819448D42BFF6F8A9E2
:101810000520FFF735F90520FFF7F3B9D8B25AE4F0
:101820000A460548054906F0E9FD9DF821200123F7
:10183000FFF74DBB0C226EE62C8BFF1FF8DC00007F
:101840002DE9F043642089B005F0D2FD3B4800F05B
:101850003DFC60B93A493B4C0B6822680492049AFB
:10186000D21AB2F57A7F4DD809B0BDE8F083354C75
:10187000354E23680093009A23680193019B3260E0
:101880009B1A41F28737BB42DFF8C49029D804ADD8
:101890000DF1180806E023680193019B32689B1A3A
:1018A000BB421ED82549284600F000FCBDF9143083
:1018B000B3F57A7FEFDD23680293029B336095E8EE
:1018C00006004046FEF708FE98E80300FFF76AF9B5
:1018D00089F800000028DED0FFF76AF8FEF792FED4
:1018E000D9E7FEF757FEFFF7AFF8FFF711F8FFF75C
:1018F00013F9236803931249039B0B60002289F8B4
:101900000020AAE706AC03F57A7320460B6005F0C9
:101910000FF994E803000D4B18609980FFF7FCF86D
:101920000B4B1B7823B9FEF7F3FF09B0BDE8F0833A
:10193000FFF73EF809B0BDE8F08300BF0088FF1F45
:10194000BC96FF1FC497FF1FC896FF1FC096FF1FBE
:10195000E096FF1FF0B587B04E4D4F484F4C504EAC
:10196000504F0C210D220B2302910192009309226A
:1019700007230A2100F062FE2B6804934A4B049A65
:101980004A491A60204606F0E3FD2046484A494984
:10199000494C06F035FFDFF84CE14849484B4948CF
:1019A00014222260CEF800204FF01F0C3222C4F81F
:1019B00010C0A2604FF0B40CE2608A60CA60DA60C6
:1019C000DC22C4F804C01A604FF6E07464220C6193
:1019D0009A6078244FF4FC62C1F804C0C3F804C0D4
:1019E0000C601A614B2105224FF6FF733460364CB0
:1019F000CEF80410CEF808107160B160CEF80C205B
:101A0000F260CEF810303361416081604FF0E60E35
:101A100028214826C2600361C0F800E026606160AA
:101A2000A1602868294E0590DFF8BCE02848E260F4
:101A30002361059C274DCEF80040C2604FF0B20EE6
:101A4000F26084245A22C6F800E0036104607160E9
:101A5000214C3361B26052234FF4AF765022416083
:101A600081606B6039460023AE60EA604FF4A07677
:101A70001E221A482B602B61236063602361E260A1
:101A8000A66004F0E3FE3946154804F0DFFE07B017
:101A9000F0BD00BFC497FF1FC095FF1F7496FF1FC6
:101AA000CC96FF1F80436D38BC96FF1FA8DB00005B
:101AB000FC87FF1FD18400003497FF1FA096FF1FF3
:101AC0008896FF1F2097FF1F6096FF1FAC97FF1F90
:101AD000AC95FF1FF896FF1F0C97FF1FC096FF1FC6
:101AE000B496FF1FE496FF1FC896FF1F2DE9F04331
:101AF0009C4D9D4C2E68DFF8CC92DFF8CC8285B0EF
:101B000040F2EE2704E0B3F5FA6F16D806F04EFD6A
:101B100006F04CFD23784BB199F80030DB0705D572
:101B20002B68D8F800209B1A0E2B06D82B68227839
:101B30009B1B002AE7D1BB42E8D940F6B83005F03C
:101B400057FC1C2189488A4C06F09EFA894806F009
:101B500039FC1821884806F097FA864806F032FCCE
:101B6000864A8749874802F0CBFA0021854801F070
:101B7000CBFE4FF6E071834801F0BAF9022211461C
:101B8000804801F0A7F901217E4801F04FFF268A25
:101B9000B4F90C00B4F90830B4F90420B4F9001019
:101BA0008DE84100774801F05FFD002319461A4691
:101BB000744801F033F91321734806F065FA6D4853
:101BC00006F000FC4FF47A7005F012FC6F4804F048
:101BD00097FF064618BBB4F90C00258AB4F9083003
:101BE000B4F90420B4F900108DE82100654801F033
:101BF0003BFD334632463146624801F00FF9112170
:101C0000634806F041FA5B4806F0DCFB11226049AC
:101C10005C4804F041F95B4806F0D4FBFEE75B4802
:101C200005F0DCF8142106465A4806F02DFA314634
:101C3000504806F031FC4F4806F0C4FBB4F90C00E4
:101C4000278AB4F90830B4F90420B4F900108DE8FB
:101C500081004C4801F008FD00231A461946494806
:101C600001F0DCF832464C49464806F0C7FB4FF419
:101C70007A7005F0BDFB454805F0B0F800284BD15F
:101C800002AC20214548464E06F0FEF9394806F0E0
:101C900099FB444A4449204604F074FE204605F06E
:101CA0002FF8204604F044FF94E8030064223060DB
:101CB000B1803E48002108F02DFA3146204604F05C
:101CC00053FE20463949FEF7E3FB2121384806F050
:101CD000DBF9284806F076FB0E21364806F0D4F9E9
:101CE000324808F00DFD0146304806F0CDF9214894
:101CF00006F068FB204604F01BFF94E803002B6805
:101D000002932D4C2D4B029AB180010E3060216060
:101D10001A6005B0BDE8F08329491648FEF7A6FB16
:101D2000268AB4F90C00B4F90830B4F90420B4F9E7
:101D300000108DE84100134801F096FC00231A467C
:101D40001946104801F06AF802AC1D490D48FEF72B
:101D50008DFB2046134A144904F014FE204604F07B
:101D6000CFFF8EE7C497FF1FA898FF1FA0DE0000DB
:101D70000C97FF1F2C8BFF1FC0DE000080841E000D
:101D800080C3C901C095FF1FDCDE00008496FF1FE1
:101D9000F0DE000004DF00001CDF00007CDF00003C
:101DA000C096FF1F64DF000070DF00004897FF1F30
:101DB000A0DF0000C4DF00009C96FF1FBC96FF1F41
:101DC00030DF0000C098FF1F2C99FF1F884270B4BD
:101DD0001BDD83B28CB21D1B2DB296B29042CCBFDC
:101DE0009B1BF31A1BB29142B4BF341BA41B9D4230
:101DF00024B205DDA34211DD0A44501070BC7047C7
:101E0000A54207DD9D42F7DBF4E78CB283B2E51A09
:101E10002DB2E2E70844401070BC704710444010F7
:101E200070BC704703786BB12DE9F04F8F4AC368DF
:101E3000126885B00392039EF31A022B03D805B0F3
:101E4000BDE8F08F7047DFF850B29BF80B30F3B16C
:101E500072B69BF80B30DD07194608D5844CDBF8C9
:101E60000C1025682940CBF81810216019469C07F2
:101E700009D5804CDBF8103025689BF80B102B40FF
:101E8000CBF81C302360490700F1D58062B6DBF83F
:101E900000307949DC688C4206D0784F784D794C17
:101EA0001F60D9601D611C6000210446407805F068
:101EB00093FADBF800204FF00041B123D162536365
:101EC000D36A002BFCDA4FF000416F4B906BD1626C
:101ED0005363D36A002BFCDA956B6C4BC5F3CC05CE
:101EE0004FF00040D06205F6FF715363D36A002BB8
:101EF000FCDA956BC5F3CC054D1BB5F5C87F77DBD8
:101F00004FF00041614BD1625363D36A002BFCDA7E
:101F10004FF000415E4B906BD1625363D36A002B4C
:101F2000FCDA976B594B4FF00041D162C7F3CC07F5
:101F30005363D36A002BFCDA906B554B4FF0004192
:101F4000D162C0F3CC085363D36A002BFCDA906BE8
:101F50004E4B4FF00041D162C0F3CC095363D36ABA
:101F6000002BFCDA936BC3F3CC0A4FF000404949D5
:101F7000D0625163D16A0029FCDA936B01934FF070
:101F800000404FF08051D0625163D16A0029FCDAE1
:101F9000936B60780093012105F01EFA9BF80B10FB
:101FA0003D4B084699B1CA0703D53C489B6903607D
:101FB00008468A0705D53A4BDBF81C109BF80B0046
:101FC0001960430703D53749DBF820200A60002D4C
:101FD0003ADBB5F5C87F11DA00234A2D23813FF79C
:101FE0002EAFA378FF2B3FF42AAF0023237026E700
:101FF0004FF0000AD146D0465746B6E7019B2581EF
:10200000C3F3CC0249463846FFF7E0FE009B054685
:10201000C3F3CC0251464046FFF7D8FEE378E660B2
:10202000012B1AD01CD3022B11D1C5F57F650F35BA
:10203000E580A08003E71C49DBF814300C682340DE
:10204000CBF820300B6021E700232381C9E7C5F5D9
:102050007F65C0F57F600F350F30A580E080EEE62C
:10206000C0F57F600F30A080E580E8E6C497FF1FD1
:1020700080E100E084E100E00320013801403F00FE
:102080000320017800003F80C10000109100001083
:10209000D1000010D00000109488FF1F00E100E084
:1020A00004E100E008E100E088E100E038B50D4619
:1020B00004460846FFF7B6FEA988B5F90620B5F92B
:1020C000083021806280A380204638BD10B50446C8
:1020D000FFF7A8FEB4F90800B0F5C87FB4BF002030
:1020E000012010BD10B4047F4160022CC26002D0F8
:1020F00010BC06F0CDB8836810BC1847F0B4464B4E
:10210000464A186BDC6A01791170454922790A70D8
:102110009A6A00790870002A46D05968C9688A42CC
:102120003ED82168CC8B240402F1FF3065D4C0F383
:102130000E00C883C88B80B2C882196B0968C88B2F
:10214000000452D4C2F30E00C883C88B002480B2AE
:1021500012F1FF32C88218BF01229C62D96A2E4850
:1021600009680D6800F12404A54236D00068C468EF
:1021700014F0804F0C680D6815BF24882478023550
:10218000013544F000440D604463196B254B097917
:102190001970214912B1CA6A12791A70F0BC7047DD
:1021A000521A9A620122D9E7586B196805681E4CC9
:1021B0000A63CC62CC682D681C4E24F0804403274F
:1021C000B542CC6083F825701FD1037F4260022B9B
:1021D000C2601ED0F0BC06F05BB8016890F8240025
:1021E000CC6840F000404863CFE7CC8BC2F30800D6
:1021F00004F47E442043C883A7E7CC8BC0F30800D7
:1022000004F47E442043C88394E72B461146F0BC77
:1022100018478368F0BC18479488FF1F1F80004050
:102220001C8000401B80004000000FFFE5200000E4
:1022300090E80C00F0B41C6859682568164F174EDA
:1022400029432160164D17491760D660156111604A
:10225000417A154A5C180A3194F8244053F8215009
:1022600002EBC40149680D60017A5C1803EB81013F
:10227000247ECD6902EBC40149680D60817A58184B
:1022800003EB810390F83000596B02EBC002F0BC05
:1022900053681960704700BF01401F0001100038EB
:1022A0000110007800001F8074B9010010B4446868
:1022B000002304F13B0212F8010F884205D00133DC
:1022C000092BF8D1002010BC7047234410BC93F8B0
:1022D0006C00704770B4466806F13B052846002341
:1022E00010F8014F8C4205D00133092BF8D10020A2
:1022F00070BC7047334493F86C000028F8D015F890
:10230000011F91424FF0000306D00133092BEED09C
:1023100015F8011F9142F8D1334493F86C302BB17A
:1023200018420CBF0120002070BC70471846DFE740
:10233000436893F824208A4206D093F82530581A2F
:10234000B0FA80F0400970470120704743681A7E58
:102350008A4205D05B7E581AB0FA80F04009704777
:1023600001207047436893F830208A4206D093F8E2
:102370003130581AB0FA80F0400970470120704798
:1023800010B44468002304F13B0212F8010F8842A4
:1023900005D00133092BF8D1002010BC7047074A43
:1023A00002EBC10103F112004A6854F820101160D9
:1023B000234410BC93F86C00704700BF74B901004F
:1023C000204A43689A42F0B40FD0427A1A4492F8F5
:1023D0002420914207D093F824408C4215D093F8E2
:1023E00025408C422AD0F0BC70470B2907D0072922
:1023F000EBD1154C227842F001022270E5E7124C35
:10240000227822F001022270DFE7002421461E68B4
:102410005D6836682E420FD00C4D05EBC2020027D6
:1024200056685A18376092F8242005EBC2050A3125
:102430006A6853F8213013604472D4E701242146BE
:10244000E5E700BF60E00000C198FF1F74B901001C
:102450001E4A43689A42F0B40CD0027A1A44127EA3
:10246000914205D01C7E8C4214D05C7E8C422AD0D6
:10247000F0BC70470C2907D00829EED1144C227803
:1024800042F002022270E8E7114C227822F00202A8
:102490002270E2E7002421461E685D6836682E42FD
:1024A0000FD00C4D05EBC202002756685A18376052
:1024B000127E063105EBC20503EB81036A685B6897
:1024C00013600472D4E701242146E5E760E00000D0
:1024D000C198FF1F74B90100204A43689A42F0B4C2
:1024E0000FD0827A1A4492F83020914207D093F8A4
:1024F00030408C4215D093F831408C422BD0F0BC48
:1025000070470D2907D00E29EBD1154C227842F0E7
:1025100004022270E5E7124C227822F004022270B5
:10252000DFE7002421461E685D6836682E4210D021
:102530000C4D05EBC202002756685A18376092F816
:1025400030200C3105EBC20503EB81036A685B6840
:1025500013608472D3E701242146E4E760E00000C1
:10256000C198FF1F74B9010000207047704700BF79
:1025700010B582B002AB026803F8011D5468194619
:102580000122A04702B010BDF0B507464FF0010E82
:10259000002003E0D21A44EA06001BD0CD0801F067
:1025A0000703C3F108030EFA03F47D5D013C9A4270
:1025B00000FA03F604EA05041944EBD20121914024
:1025C0009B1A45FA03F34D1E00FA02F22B4043EA30
:1025D0000200F0BDF0BD00BF002AF0B5144FDFF8D7
:1025E00058E014BF4FF060554FF06455002602E0EC
:1025F000172C08D0264637F8022F9EFBF2F29142A4
:1026000006F10104F4D31A0701D545F08065094AA3
:102610005B0752F8262007D5130903F4706322F4F0
:10262000704245F000751A4315430560F0BD00BFC8
:10263000D2DF000004E00000006CDC022DE9F04174
:1026400004469DF818508E4884F88B1008219DF898
:102650001C7084F88C209DF8206084F88A30012258
:102660000023206084F86710F0204FF4A07184F8F4
:1026700090504FF07E5E4FF6FF7584F8642084F82A
:10268000662084F8592084F8582084F85C206184FE
:10269000C4F86CE084F8917084F88F602371A360B3
:1026A00084F8283084F8293084F86530636784F82A
:1026B0007830A4F8843084F85A30A384E3842084EA
:1026C000A4F84C50A4F84A50B4F932202186EF2ADD
:1026D00023666385A385E085114600F390809A42C6
:1026E00000DC1A46F031EF291646E28600F38E80B0
:1026F000002900F3AE80B4F934300027B3F5A07F91
:10270000394667871846C0F28B8000F5A0704FF4F9
:10271000A073B0F5A07F9E462387C0F28C804FF453
:10272000A0752846BA421DBFEB1AB3FA83F35B09C2
:102730000123A58784F83E30002E40F08380F029E5
:1027400000F093804F4D84F83F6005F02FFF2B7809
:102750001BB14D4B1B78DA0776D4B4F92070B4F96D
:102760002A30B4F922E0B4F92C00B4F92E20B4F9DF
:102770003010BB42A8BF3B467045A8BF7046BA4266
:10278000A8BF3A4623EAE3737145A8BF71460FFA22
:1027900083FC22EAE27220EAE07006B2944521EA64
:1027A000E17126871CBF761AB6FA86F64FF000084C
:1027B00014BF76090126A4F836C06287A187A4F861
:1027C0003280A4F8348084F83E60002B38D19742E0
:1027D00043D084F83F3005F0E9FE2B783BB12A4B1B
:1027E0001B78DB0703D5294A294B12681B68002395
:1027F00084F89830C4F89C302046BDE8F081F03170
:102800000246EF290646E2867FF772AFF027394687
:10281000B4F934306787B3F5A07F1846BFF675AFBB
:10282000002B00DC002300F5A070B0F5A07F9E46D1
:102830002387BFF674AF00280DDC0025284671E71A
:102840000023C6E700267DE7104A114B12681B687B
:1028500083E70FB2DCE705B264E70028B9D1C1EB2A
:102860000E03B3FA83F35B09B3E7BEF1000F7FF405
:1028700069AFA0F5A076B6FA86F6760962E700BFE2
:10288000F8B30100A898FF1FC098FF1FC497FF1F4F
:102890002C99FF1F436F01660022A0F884201BB112
:1028A000C38C4267063BC384012380F8643011B1B6
:1028B0000A7B172A00D0704710B54A7B02F003024A
:1028C0001A44044690101844C11803FA01F1013962
:1028D0009340013B84F8642084F8650084F8661016
:1028E0001F20082190FBF3F091FBF2F284F867209F
:1028F00006F0AEFCB4F84A20B4F84C30E0669342DF
:1029000005D1B3FA83F35B095B42A4F84C3010BDE8
:102910002DE9F04F046E85B0002C00F0E1800A290B
:1029200000F0D5800D2900F0C580A57BA94280F07C
:10293000C48094F810C06145C0F0BC80667C8E42B3
:10294000C0F0B88094F80FE0CCEB0101714494F82A
:1029500012E0491B01FB0EE116460546724620684F
:102960001F46FFF711FEA36803EB00084046032251
:102970000021FFF709FE002840F09C8094F8139096
:1029800003214A464046FFF7FFFD94F814B001903A
:1029900009F1030949465A464046FFF7F5FD637DB4
:1029A0000293D94449461A4682464046FFF7ECFD59
:1029B000029B94F816B05A1E012101FA02F202425B
:1029C00018BF994099441ABF421A02920290494690
:1029D0005A464046FFF7D8FD01210BF1FF3201FABC
:1029E00002F202421ABF01FA0BF3C31A034609EBC3
:1029F0000B014046E27D0393FFF7C6FD94F819E012
:102A00003A88039B3188BDF80890BDF804B095F86A
:102A10005C801FFA8AFA72449BB2CAEB0202D21A95
:102A2000494492B289B20AEB020C01EB0B0E0FFA89
:102A30008CFC12B20FFA8EFE09B2B8F1000F18D05A
:102A4000B5F92050754514DA00223280217E3A888B
:102A50000A4492B23A8031881A44494492B289B207
:102A600092440BEB010E0FFA8AFC12B20FFA8EFEA3
:102A700009B20E9BB3F900308B42C4BF0E9B198084
:102A80000F9BB3F900309342C4BF0F9B1A80109B79
:102A9000B3F900307345BCBF109BA3F800E0119B55
:102AA000B3F900306345BCBF119BA3F800C0338865
:102AB0001844308005B0BDE8F08FE67B8E42FFF40D
:102AC00038AF94F812E0491B0EFB01F144E70021F6
:102AD0001180217E1A880A441A8005B0BDE8F08F63
:102AE000456F002D65D00A295AD00D29E2D02E7AE3
:102AF000B142DFD36F7A8F42DCD36F6895F80A80DA
:102B000090F85CC0891B07EBC10191F806908F78A3
:102B100091F803E00E7991F9051009EB58084FFA86
:102B200088F8BCF1000F40F08580B3F900A090F860
:102B30005890B2F900C00E9B90F85900B3F90050BC
:102B40001FFA89F401FB04C189B207FB041709B21B
:102B50008D42C4BF0E9D29800F9908FB00A3B1F9D7
:102B600000109BB20EFB00301BB29942C4BF0F99FC
:102B70000B80109B013FB3F900303FB2BB42BCBF9A
:102B8000109B1F80119B0138B3F9003000B28342C3
:102B9000BCBF119B1880138806FB0436168089E79A
:102BA000148090F85900A97A1A8800FB01221A8033
:102BB00080E70A296BD00D293FF47CAF90F85C10B8
:102BC000002956D1B2F9001090F85860B3F90050BE
:102BD000062414FB0611109E90F85940B6F90060C7
:102BE0000139B14205EBC404C4BF109D298011997D
:102BF000B1F90010013C8C42C4BF11990C800E9CAD
:102C0000B2F90010B4F900408C42C4BF0E9C218080
:102C10000F99B3F90030B1F900109942C4BF0F9970
:102C20000B8090F85830118803EB430301EB43030A
:102C300013803FE7B2F900C090F85890B0F920B087
:102C400001EB070A09FB0ACADA4502DCB3F900A066
:102C500071E71480AC7A90F859A01D880AFB045AD9
:102C60000FFA8AFAA3F800A090F85890B2F900C0C1
:102C700061E7B2F9007090F85810B0F920600624AE
:102C800014FB0171B1420ADCB3F90050A3E71580CF
:102C900090F859101A8802EBC1021A800AE71580D1
:102CA000198890F8595001EBC5052DB21D80B2F975
:102CB000006090F8581014FB01618CE72DE9F04F8B
:102CC00089B00024DDF850B0139EBDF84850338021
:102CD000ABF80050169DADF816302C80159D2C8059
:102CE0004FF6FF73B0F920E0B0F92270ADF818E0AC
:102CF000ADF81A70ADF81C30ADF81E30A2B3551EF9
:102D0000ADB206460D444C1E0DF11E0A0DF11C0914
:102D10000DF11A0806AF14F8011F12AB8DE88007F9
:102D20000DF116023046FFF7F3FDAC42F3D1BDF9C9
:102D30001C20BDF918E0BDF91E30BDF91A707245AE
:102D400007DB13990132A1F800E01599CEEB0202DE
:102D50000A809F4205DC0133169AABF80070DB1B3A
:102D6000138009B0BDE8F08F4FF0FF331A46E6E755
:102D7000B0F984308B424FDD2DE9F04FD0F874B0BC
:102D8000C56F9BF80870DBF804809BF80A40B0F927
:102D9000823090F85960EF1B08EBC70E9EF9065081
:102DA00005EB540414FB063C624532DB9EF80350ED
:102DB0002C4406FB0434A2422BDA90F858309EF9DA
:102DC0000590B0F980A09EF802E0DBF8005038F8DA
:102DD0003740CCEB020019FB03A93044C9EB0101D9
:102DE0000138194490FBF6F21EFB02F2013991FB07
:102DF000F3F313449BB205EBD3058022295D03F066
:102E0000070342FA03F3194214BF01200020BDE872
:102E1000F08F0020BDE8F08F0020704710B442F220
:102E20000E74A14280F8283080F8293039D042F25F
:102E30000E739A4241D000294ADBB0F92030994202
:102E40001BDA002A81841DDBB0F922309A4211DAA4
:102E5000B0F94030C284994204DBB0F944402344C5
:102E6000994211DD002380F849300023A0F8843016
:102E700010BC70475A1E12B2EAE7591E09B2002A66
:102E80008184E1DA0022E3E7B0F942309A42E9DBDB
:102E9000B0F946100B449A42E4DC012380F8493033
:102EA000E3E7B0F92010012301EBD171194180F85B
:102EB000283042F20E739A42BDD1B0F9222001238C
:102EC00002EBD272002942FA03F280F82930B4DA18
:102ED0000021B6E7002908BF0121002A08BF01220E
:102EE000002380F8581080F85920A0F884307047EB
:102EF000A0F84C10A0F84A10704700BFC169D0F884
:102F00009400CB6A03F4704213F0F00F18BF8B6B80
:102F10008242F6D8704700BF2DE9F04F90F88F40FD
:102F200083B0FF2CBDF9305000F0288103FB05F47D
:102F300004EB4404D0F818B0D0F808E0DFF8A89209
:102F4000A34E4FF0000C03E0B8F1170F08D0C446B1
:102F500039F8027F96FBF7F7BB450CF10108F3D374
:102F60009C4E9EF80B7056F82CB0B0F93290B0F928
:102F700034A04BF0605877B372B69EF80B70FE0722
:102F80000CD5DFF868C2DEF80C60DCF80070374062
:102F9000CEF81870CCF800709EF80B70BE070CD5F8
:102FA000DFF84CC2DEF81060DCF800703740CEF875
:102FB0001C70CCF800709EF80B707E070AD5DFF805
:102FC00034C2DEF81460DCF800703740CEF82070B0
:102FD000CCF8007062B6DEF80070D7F80CE0C64599
:102FE0000BD04BF0F04C7C4EDFF80CB2C7F800B0C1
:102FF000C7F80C80C7F810C03E60D0F89C703FB195
:1030000097F800E090F898C02EEA0C0E87F800E0E0
:10301000074690F88E000004924440F00042F869A0
:10302000894442F02A02013B42631FFA89F938467B
:1030300009EB0308FFF762FF97F88D20FB6949EA67
:10304000024949F010425A633846FFF757FF97F894
:103050008D30FA691FFA88F848EA034848F01043AF
:1030600053633846FFF74AFF97F88E30FA691B041E
:1030700043F0004343F02B0353633846FFF73EFF12
:1030800097F88D30FA691FFA8AFA013D55444AEAE9
:10309000034A4AF0104353633846FFF72FFF97F86F
:1030A0008D20FB69ADB245EA024545F010455D63F0
:1030B0003846FFF723FF97F88E30FA691B0443F078
:1030C000004343F02E0353633846FFF717FF97F88A
:1030D0008D20FB69120442F000425A63DA6AC2F39F
:1030E0000311C2F3033211440131264600257CB995
:1030F00016B3DA6A12F0F00FF9D002AA2A44986BDC
:1031000002F8040C00293CD00139C9B2002CEFD0E0
:10311000DA6AD7F8940002F47042824209D8013C7E
:103120004BD097F88D20120442F0004242F03F024B
:103130005A63002EDBD0DCE7DA6AD400FCD5D7F87E
:103140009C204FF08051D96222B1117897F89830C5
:103150000B431370BA68D37A83B1D80703D51F4BDA
:1031600091691960D37A990703D51D4BD16919600C
:10317000D37A5B0702D51B4B126A1A6003B0BDE815
:10318000F08F0135EDB2032D06F1FF36AFD19DF87A
:1031900004209DF805009DF806501202C00000F4BE
:1031A000FC6002F4784202430D9842EAD5020280A4
:1031B000024602320D460D9299E797F88D201204CF
:1031C00042F0006242F03F025A63002E8FD090E737
:1031D000006CDC0204E0000000003F8000E100E041
:1031E00004E100E008E100E0D2DF000080E100E05F
:1031F00084E100E088E100E001403F00C26902E0B4
:1032000013F0F00F10D1D36AD800F9D54FF08053E6
:10321000D3621160D36A13F0F00F04D0936BD36ABA
:1032200013F0F00FFAD17047936BECE72DE9F04102
:10323000448EB0F9365021448CB221B28D4282B016
:103240000FDCB0F93A508D420BDD818EB0F9385069
:103250005618B6B232B2954203DCB0F93C10914236
:1032600002DC02B0BDE8F081D0F80880416901229B
:103270001F460546002301A8FFF7AEF998F80B306A
:10328000019A002B40F09280D8F80030D968914222
:1032900007D05A4818605A49DA6042F080401861F5
:1032A0001960D5F89C302BB11A7895F8981022EA5D
:1032B00001021A7095F88E30EA691B0443F000434E
:1032C00043F02A0353632846FFF718FE95F88D3024
:1032D000EA6944EA034343F0104353632846FFF787
:1032E0000DFE95F88D10EB6944EA014141F0104163
:1032F00059632846FFF702FE95F88E30EA691B04F1
:1033000043F0004343F02B0353632846FFF7F6FDD9
:1033100095F88D30EA6946EA034343F0104353635E
:103320002846FFF7EBFD95F88D20EB6946EA02464B
:1033300046F010465E632846FFF7E0FD95F88E30B4
:10334000EA691B0443F0004343F02C03536328460F
:10335000FFF7D4FD95F88D30EA6947EA034747F057
:10336000C057116857632846FFF748FFD5F89C30CF
:1033700023B1197895F898200A431A70AA68D37A6D
:10338000002B3FF46EAFD80703D51E4B916919602F
:10339000D37A990703D51C4BD1691960D37A5B079F
:1033A0007FF55FAF194B126A1A605AE772B698F848
:1033B0000B30D80709D51649D8F80C3008680340F7
:1033C000C8F818300B6098F80B30990709D51149E7
:1033D000D8F8103008680340C8F81C300B6098F823
:1033E0000B305B0707D50C49D8F814300868034048
:1033F000C8F820300B6062B646E700BF01403F00CE
:1034000000003F8000E100E004E100E008E100E0AE
:1034100080E100E084E100E088E100E02DE9F04790
:10342000878E3A44044697B2B0F9380082B03AB277
:103430009042BDF8286000F3F5809846638EB4F999
:103440003A00194489B20DB2854280F2EB80B4F99A
:103450003C30934240F3E680B4F936309D4205DAC1
:10346000C3EB080841440FFA81F81D4605EB080339
:103470008342C4BFC5EB00080FFA88F8B8F1000F0B
:1034800040F3D080D4F8089061690023012201A89C
:10349000FFF7A2F899F80B30019AF3B172B699F8D8
:1034A0000B30D80709D56849D9F80C3008680340B3
:1034B000C9F818300B6099F80B30990709D56349A2
:1034C000D9F8103008680340C9F81C300B6099F82F
:1034D0000B305B0700F1AE8062B6D9F80030D968D6
:1034E000914207D05A4818605A49DA6042F0804049
:1034F00018611960D4F89C302BB11A7894F89810A0
:1035000022EA01021A7094F88E30E2691B0443F03B
:10351000004343F02A0353632046FFF7EFFC94F87F
:103520008D30E2691FFA85FA4AEA034343F01043FB
:10353000536320460AF1FF391FFA88F5FFF7DEFCD6
:10354000A94494F88D30E2691FFA89F949EA0349E0
:1035500049F0104353632046FFF7D0FC94F88E30B7
:10356000E2691B0443F0004343F02B0353632046FE
:10357000FFF7C4FC94F88D30E26947EA034343F057
:10358000104353632046FFF7B9FC94F88D20E3699C
:1035900047EA024747F010475F632046FFF7AEFC5B
:1035A00094F88E30E2691B0443F0004343F02C038F
:1035B00053632046FFF7A2FCB8F1010F0ED094F838
:1035C0008D30E26946EA034343F01043013D536303
:1035D0002046ADB2FFF792FC012DF0D894F88D3063
:1035E000E26946EA034646F0C05611685663204633
:1035F000FFF704FED4F89C3023B1197894F8982092
:103600000A431A70A268D37A63B1D80703D5124B64
:1036100091691960D37A990707D45B0702D50F4BDC
:10362000126A1A6002B0BDE8F0870D4BD1691960CB
:10363000D37AF2E70B49D9F8143008680340C9F887
:1036400020300B6048E700BF80E100E084E100E04B
:1036500001403F0000003F8000E100E008E100E0A1
:1036600004E100E088E100E02DE9F04F0446408EDF
:10367000B4F93AE0014489B285B008B27045BDF9A9
:103680003860BDF83C5080F20C811F46A38EB4F91F
:103690003CC013449BB21AB2624580F20281B4F975
:1036A000368000EB0709C14540F3FB80B4F938A030
:1036B00002EB060BD34540F3F4804045C0F2FD8099
:1036C00001915245C0F2F0809846CE4503DA019B45
:1036D000C3EB0E073FB2DC45D4F808906169B8BF70
:1036E000C8EB0C064FF000034FF0010203A8B8BF6F
:1036F00036B2FEF771FF99F80B30039AF3B172B648
:1037000099F80B30D80709D57749D9F80C300868F3
:103710000340C9F818300B6099F80B30990709D5A8
:103720007249D9F8103008680340C9F81C300B60A2
:1037300099F80B305B0700F1CE8062B6D9F8003003
:10374000D968914207D06A4818606A49DA6042F045
:10375000804018611960D4F89C302BB11A7894F825
:10376000981022EA01021A7094F88E30E2690199E9
:103770001B0443F0004343F02A035363204601F146
:10378000FF3AFFF7BBFB019994F88D30E26941EAFB
:10379000034343F0104353632046FFF7AFFBBA44A3
:1037A00094F88D30E2691FFA8AFA4AEA034343F03B
:1037B000104353632046FFF7A1FB94F88E30E26973
:1037C0001B0443F0004343F02B0353632046FFF7F1
:1037D00095FB94F88D30E26948EA034343F01043C7
:1037E0005363204608F1FF39FFF788FBB14494F892
:1037F0008D30E2691FFA89F949EA034343F0104327
:1038000053632046FFF77AFB94F88E30E2691B047D
:1038100043F0004343F02C0353632046FFF76EFB55
:10382000002E26DD012FC8BFB84611DD94F88D307B
:10383000E26945EA034343F0104308F1FF3853635C
:1038400020460FFA88F8FFF759FBB8F1010FEDD1C8
:1038500094F88D30E26945EA034343F0C0531168A0
:103860005363013E2046FFF7C9FCB3B21EB2002BE2
:10387000D8D1D4F89C3023B1197894F898200A4311
:103880001A70A268D37A63B1D80703D51A4B91692D
:103890001960D37A990719D45B0702D5174B126ABE
:1038A0001A6005B0BDE8F08F1FFA8AF8C8EB06066B
:1038B00033441EB206EB0A0B07E71FFA88F03F1AE3
:1038C00039440FB2019007EB0809FAE60C4BD169B5
:1038D0001960D37AE0E70B49D9F81430086803403F
:1038E000C9F820300B6028E780E100E084E100E0C7
:1038F00001403F0000003F8000E100E008E100E0FF
:1039000004E100E088E100E010B582B00022B0F9E7
:1039100022400191B0F9203000941146FFF7A4FE37
:1039200002B010BD2DE9F04F87B08046119D04957F
:10393000129D109C059522B9002967D107B0BDE8FA
:10394000F08F17460026BDF91420029103EB0409FD
:103950004FF0010A3446BDF910B0039207E016B1EA
:10396000029A002A43D1013400262B46C5B15D1EC0
:103970000AFA05F23A42F2D1C3EB0901091B23B25C
:103980005A4609B2404634B1B8F84AE0039C8DE883
:103990001040FFF769FE013600242B46002DE6D1CA
:1039A00074B1B8F84A30BDF914200193C4EB090191
:1039B000009209B223B2BDF910204046FFF754FE31
:1039C000002EBBD0029B002BB8D0B8F84C00BDF93C
:1039D0001430BDF910201093C6EB0901119009B203
:1039E00033B2404607B0BDE8F04FFFF73DBEC3EB32
:1039F0000901B8F84C20039B0093891B019209B27E
:103A000033B25A464046FFF72FFEACE7B0F84C20E1
:103A10001192BDF914201092BDF910201BB221B2F1
:103A200007B0BDE8F04FFFF71FBE00BF01F0030174
:103A30002DE9F041826880F85A1004464769AC4D80
:103A4000AC4E002102E0172808D0014635F8023FAD
:103A500096FBF3F39F4201F10100F4D3A648D37A19
:103A600050F8211041F06050BBB172B6D37ADD0737
:103A700006D5A24DD3682E68334093612B60D37A6C
:103A80009F0706D59E4D13692E683340D3612B6086
:103A9000D37A5E0700F1088162B61368DA68824261
:103AA00007D041F0F041974D974A1D60D8601961E9
:103AB0001A60D4F89C302BB11A7894F8981022EA46
:103AC00001021A7094F88E30E2691B0443F000433F
:103AD00043F0360353632046FFF710FA94F85A3048
:103AE000032B17D8DFE813F02201FA00E7000400E7
:103AF00094F88D30E2691B0443F00063116843F0D1
:103B0000E80353632046FFF779FB4FF4A072F023DC
:103B100022846384D4F89C3023B1197894F89820D7
:103B20000A431A70A268D37A83B1DD0703D5774BB5
:103B300091691960D37A980703D5754BD1691960DB
:103B4000D37A590702D5734B126A1A60B4F9205020
:103B5000B4F93230B4F92260B4F93400E5855A1969
:103B6000AA4200EB0601A8BF2A46AB42A8BF2B46DB
:103B7000B142A8BF3146B042A8BF304622EAE27245
:103B800023EAE37312B20FFA83FE21EAE17120EA1D
:103B9000E07007B2964509B227871CBF7F1AB7FAB3
:103BA00087F74FF0000C14BF7F0901276287268634
:103BB000A187A4F836E0A4F82AC0A4F82CC084F8A1
:103BC0003E70002B54D1954200F0C280524D84F8D3
:103BD0003F3004F0EBFC2B781BB1504B1B78DA071D
:103BE0005DD4B4F92070B4F92A20B4F922E0B4F914
:103BF0002C00B4F92E30B4F93010BA42A8BF3A46BE
:103C00007045A8BF7046BB42A8BF3B4622EAE2729D
:103C10007145A8BF71460FFA82FC23EAE37320EADC
:103C2000E07006B29C4521EAE17126871CBF761A36
:103C3000B6FA86F64FF0000814BF76090126A4F8FC
:103C400036C06387A187A4F83280A4F8348084F852
:103C50003E607AB99F4273D0134684F83F3004F037
:103C6000A5FC2B7873B90023A384E384BDE8F0811D
:103C70000023ABE7002384F83F3004F097FC2B7857
:103C8000002BF0D0254B1B78DB07ECD5244A254BC5
:103C900012681B680023A384E384BDE8F081204AF6
:103CA000204B12681B689CE71F4D53692E683340F8
:103CB00013622B60F0E694F88D30E2691B0443F048
:103CC0000063116843F0880353632046FFF796FAB8
:103CD000F0224FF4A073228463841BE794F88D30A4
:103CE000E2691B0443F00063116843F0280308E70E
:103CF000D2DF0000006CDC0204E0000080E100E0A4
:103D000084E100E001403F0000003F8000E100E06E
:103D100004E100E008E100E0A898FF1FC098FF1F41
:103D2000C497FF1F2C99FF1F88E100E094F88D30A5
:103D3000E2691B0443F00063116843F04803C3E7E2
:103D4000002889D1C1EB0E03B3FA83F35B0992E734
:103D500000287FF43BAF731AB3FA83F35B0935E7AE
:103D60002DE9F04F42F20E7785B0B94204469946EC
:103D7000BDF938600F9D00F03E8142F20E739A4209
:103D800000F03181678EB4F93A3039448FB239B2DC
:103D9000994280F22581B4F83480B4F93C00904413
:103DA0000FFA88F8804580F21B81B4F9362001EBC8
:103DB000090E964540F31481B4F938C006EB080AA1
:103DC000E24540F30D81E0450BDAC8EB0C08C8EB87
:103DD000060636B208FB09F805EB480506EB0C0AA7
:103DE000E04650451FFA88F8BCBFC8EB000006B299
:103DF0009142C0F20B814FF0000A734580F20381BB
:103E0000DB1B9BB21FFA89F2D21A92B200920FFA10
:103E100083F9D4F808B061690023012203A8FEF7F2
:103E2000DBFB9BF80B30039AF3B172B69BF80B30B7
:103E3000D80709D58249DBF80C3008680340CBF875
:103E400018300B609BF80B30990709D57D49DBF8DA
:103E5000103008680340CBF81C300B609BF80B3027
:103E60005B0700F1E48062B6DBF80030D96891426C
:103E700007D0754818607549DA6042F080401861D3
:103E80001960D4F89C302BB11A7894F8981022EA73
:103E900001021A7094F88E30E2691B0443F000436B
:103EA00043F02A03791E536301EB090292B22046C4
:103EB0000192FFF723F894F88D30E16947EA034354
:103EC00043F010434B632046FFF718F894F88D3009
:103ED000019AE16942EA034343F010434B632046F1
:103EE000FFF70CF894F88E30E2691B0443F00043AE
:103EF00043F02B0353632046FFF700F894F88D300E
:103F0000E26948EA034343F010435363204608F153
:103F1000FF3BFEF7F3FFB34494F88D30E2691FFADC
:103F20008BFB4BEA034343F0104353632046FEF7F9
:103F3000E5FF94F88E30E2691B0443F0004343F040
:103F40002C0353632046FEF7D9FF002E30DD009B83
:103F50005F0002374FEA4A0AB9F1010F554414DDF8
:103F6000C84694F88D1035F8023BE26943EA0143F4
:103F700043F0104308F1FF38536320460FFA88F8E6
:103F8000FEF7BCFFB8F1010FEBD194F88D102B8830
:103F9000E26943EA014343F0C05311685363013EB1
:103FA0002046FFF72BF9B3B23D441EB2002BD3D10C
:103FB000D4F89C3023B1197894F898200A431A70E9
:103FC000A268D37A63B1D80703D5214B91691960F0
:103FD000D37A990726D45B0702D51E4B126A1A6062
:103FE00005B0BDE8F08FB4F92220921B02EBD2722B
:103FF00042F34F02C6E6B0F92010C91A01EBD171A5
:1040000041F34F01B9E60023009302E791B2CF1BC1
:104010001FFA87FACAEB09090FFA89F909EB020EB0
:104020000F46EAE60C4BD1691960D37AD3E70B4906
:10403000DBF8143008680340CBF820300B6012E73F
:1040400080E100E084E100E001403F0000003F80AB
:1040500000E100E008E100E004E100E088E100E0C8
:104060002DE9F04782B0B0F94430B0F946208A46D5
:10407000B0F942100446580008300AEB01050A4422
:1040800020F00700954202AFA8BF1FFA8AF9ADEBF6
:10409000000D24DA02AE1FFA8AF94FF00108B4F9D4
:1040A000401001962AB22046CDF80080FEF734FF7A
:1040B000C9EB0502B4F94430B4F94010019612B2CC
:1040C000CDF800802046FFF74BFEB4F94210B4F95A
:1040D0004620B4F9443001350A44AA42DFDCB4F882
:1040E0004E00B4F940100190C9EB0202CDF800A0D7
:1040F00012B22046FFF7B8FABD46BDE8F08700BF10
:104100002DE9F047044684B061619048A26194F8BB
:104110009010FEF70DF9002800F09C8194F88F10A4
:10412000FF2905D08948FEF711F9002800F0928197
:10413000864D94F891102846FEF714F9002800F0F7
:104140008981834AE2614FF440530021284621745B
:10415000C4F8943094F89010A560FEF731F994F803
:104160009110A068FEF7B8F994F88F10FF2902D0DB
:10417000A068FEF76DF9A0684368E360FEF758F8A1
:1041800094F88C2094F88B10A068FEF7A3F80546ED
:10419000002800F07E8194F88B10A068FEF7F0F8FC
:1041A00094F88C1084F88D000546A068FEF7E8F8B6
:1041B000284384F88E0094F88A00FF281AD0012141
:1041C00003F010F9012194F88A0003F005F90520A5
:1041D00003F00EF9002194F88A0003F0FDF8142092
:1041E00003F006F994F88A00012103F0F5F896200F
:1041F00003F0FEF86569DFF88081A268554FAD08CD
:104200004646002102E0172808D0014636F8023F52
:1042100097FBF3F3AB4201F10100F4D8DFF85C91B6
:10422000D37A59F8211041F06050BBB172B6D37AFD
:10423000DF0706D5484DD3682E68334093612B6065
:10424000D37A9E0706D5454D13692E683340D36156
:104250002B60D37A5D0700F1468162B61368DA6895
:10426000824207D041F0F0413D4D3E4A1D60D8608A
:1042700019611A60D4F89C302BB11A7894F8981010
:1042800022EA01021A70384D4FF0040A94F88E1099
:104290006B78E26943EA014343F0004353632046ED
:1042A000FEF72CFEAAF10206BAF1010FF6B205F1F3
:1042B000020700F0EC80F31C1D44BA461AF8013BDB
:1042C00094F88D10E26943EA014343F000435363DD
:1042D0002046FEF713FEAA45F0D1751C3D4495F823
:1042E00000A0BAF1000FD1D194F88E30E2691B041E
:1042F00043F0006343F01103116853632046FEF757
:104300007DFFD4F89C3023B1197894F898200A43A3
:104310001A70A268D37A83B1D80703D5134B916979
:104320001960D37A990703D5114BD1691960D37AF3
:104330005B0702D50F4B126A1A60782003F058F819
:10434000044E6569A26800211DE000BF9488FF1F2C
:1043500000C00240006CDC0280E100E084E100E08B
:1043600001403F0000003F80DCB2010000E100E0BE
:1043700004E100E008E100E0D2DF000004E000001A
:10438000172808D0014638F8023F96FBF3F39D4208
:1043900001F10100F4D359F82110D37A41F06050B3
:1043A000BBB172B6D37ADF0706D5594DD3682E68F4
:1043B000334093612B60D37A9E0706D5554D136920
:1043C0002E683340D3612B60D37A5D0700F184807F
:1043D00062B61368DA68824207D041F0F0414E4D70
:1043E0004E4A1D60D86019611A60D4F89C302BB118
:1043F0001A7894F8981022EA01021A7094F88E3014
:10440000E2691B0443F0006343F02903116853631E
:104410002046FEF7F3FED4F89C3023B1197894F8C7
:1044200098200A431A70A268D37A83B1D80703D5BB
:104430003B4B91691960D37A990703D5394BD16900
:104440001960D37A5B0702D5374B126A1A6004B041
:10445000BDE8F0874221354803F016FE344803F0EA
:10446000B1FF94F88B0094F8911094F88C5094F864
:104470008F3094F890200190009102952D492C489E
:1044800003F0BCFF04B0BDE8F04703F0B1BE3D4609
:1044900025E794F88C10A068FDF708FF50B394F856
:1044A0008C1084F88D50A068FDF76AFF012184F814
:1044B0008E0094F88B0002F095FF94F88B101E4B41
:1044C000012253F83130C4F89C3084F898201A78CF
:1044D00042F001021A706EE6184D53692E6833409F
:1044E00013622B6074E7154D53692E6833401362D5
:1044F0002B60B2E684F88D0084F88E0036211048D7
:1045000003F0C2FD0A4804B0BDE8F04703F05ABF0B
:1045100080E100E084E100E001403F0000003F80D6
:1045200000E100E004E100E008E100E080B3010008
:104530002C8BFF1FC4B3010074B9010088E100E0B7
:1045400048B301000D2900F0B0812DE9F04F436F11
:104550001C7AA14297B0C0F09F815A7A914200F232
:104560009B815E680C1B06EBC40215461092927884
:104570000D921746EA780E921546002F00F08F81B3
:10458000002D00F08C81109D9F7A95F906E090F83F
:104590005C2095F905B00EEB57050395B0F924E0C2
:1045A00052B10D9F90F85820B0F920505F4407FB9E
:1045B00002E2AA4200F371821FFA8EF205461391BD
:1045C000B0F84A00B5F84C1036F8344007948842E9
:1045D0001C68049400F06F811099688E0E790D9913
:1045E00095F858405944104480B28E4206FB04FEB0
:1045F000ACBF00EB0E0101FB040107B20BFB040092
:1046000000B2BBF1000F029709B20890C0F2E48338
:1046100002980590B5F93A900598484580F2468190
:10462000B5F9340095F85980B5F926409F7A95F987
:1046300078A0B5F93CC004441FFA88F317FB08F6CC
:104640000AFB034000EB560086B20FFA86FBE345F7
:1046500080F22C81B5F93600884200F3278107FBF0
:104660000363B5F938001BB2984200F31F8163451C
:10467000B5F98220A8BF6346494511930B46A8BFF0
:104680004B46A2420693AC6869691CBF0023A5F89B
:1046900084300122002315A8FDF79EFFE37A159AC6
:1046A000E3B172B6E37AD80706D5B649E36808687D
:1046B0000340A3610B60E37A990706D5B2492369E9
:1046C00008680340E3610B60E37A5B0705D5AF49F7
:1046D00063690868034023620B6062B62368D96887
:1046E000914207D0AA481860AA49DA6042F0804097
:1046F00018611960D5F89C302BB11A7895F898108C
:1047000022EA01021A70B5F93690059B95F88E20C1
:10471000B5F93840E9694B45039BA8BFBDF8149033
:104720004FEA0242A3EB570742F0004242F02A024E
:10473000CAEB07034A6313FB08F3B8BF1FFA89F9F2
:104740002846A345B4BFA4B23446DFB2FEF7D6FB79
:1047500095F88D20EB6949EA024242F010425A6313
:104760002846FEF7CBFB069B95F88D10EA69013BC6
:104770009BB243EA014343F0104353632846FEF7DC
:10478000BDFB95F88E30EA691B0443F0004343F00B
:104790002B0353632846FEF7B1FB95F88D30EA6989
:1047A00044EA034343F0104353632846FEF7A6FB55
:1047B000119B95F88D10EA69013B9BB243EA0143D6
:1047C00043F0104353632846FEF798FB95F88E306C
:1047D000EA691B0443F0004343F02C03536328466B
:1047E0007C1EFEF78BFBE4B2002F00F06C81A4B2BC
:1047F000771C2744DDF814A0DDF818903FB2B5F916
:1048000038305B4500F35481B5F93C305B4540F3EB
:104810004F81CA4580F24C81D04613E0B5F886300E
:1048200095F88D10EA6943EA014343F0104353635E
:104830002846FEF763FB08F101080FFA88F8C8451F
:1048400080F23681B5F93630434541465A4628460E
:10485000F1DCFEF78DFA0028E0D1029B4345CCBF86
:10486000B5F88830B5F84C30DAE7029B0E9A013380
:104870000293DBB20AF1010A9A421FFA8AFA27D898
:104880001FFA8EF20023A5F88430109B197995F851
:10489000583001FB0322AA8417B0BDE8F08F20290D
:1048A0003FF471AE17B0BDE8F08F70477244AA8430
:1048B00017B0BDE8F08F0E9B002BE3D04FF000093E
:1048C0004F464E46CDF80890BDF80CA0DDF81C9080
:1048D0000D9B002BC9D01C464FF000081EE0FF2E98
:1048E00075D006F0F003F02B00F08C8006F0E003AA
:1048F000E02B00F0A28006F0C003C02B4CD03306A2
:104900001ED401221346E41A98441F44964014F022
:10491000FF045FFA88F8FFB2F6B2A6D07A0706D194
:10492000049A09F1010312F809601FFA83F9072CB0
:10493000D5D8032CD5D8D9D0022CDCD03306E0D57D
:10494000B5F8583040F20112934200F0928095F889
:104950005920E98C95F85830B5F84A00009212FBBE
:104960000AF20A440BEB080101FB03E112B20190C9
:1049700009B22846FEF778FE01221346B5F924E075
:10498000C1E700BF80E100E084E100E088E100E0F1
:1049900001403F0000003F8095F85920E98C95F8D0
:1049A0005830B5F84A00009212FB0AF20A440BEBA9
:1049B000080101FB03E112B25B00019009B2284635
:1049C000FEF752FE02221346B5F924E09BE795F864
:1049D0005920E98C95F85830B5F84A00009212FB3E
:1049E0000AF20A440BEB080101FB03E112B2DB00FF
:1049F000019009B22846FEF737FE08221346B5F9A2
:104A000024E080E795F85920E98C95F85830B5F8FE
:104A10004A00009212FB0AF20A440BEB080101FB68
:104A200003E112B29B00019009B22846FEF71CFE7A
:104A300004221346B5F924E065E795F85920E98C7E
:104A400095F85830B5F84A00009212FB0AF20A4471
:104A50000BEB080101FB03E112B203EB43030190EE
:104A600009B22846FEF700FE03221346B5F924E0FA
:104A700049E70398EA8CB5F84A30024402980EEBF5
:104A800008010244594412B209B22846FEF7CEFB8F
:104A900001221346B5F924E035E7002282849F7A8B
:104AA00090F859E0C58C0EFB0755C584964685E500
:104AB0000BF1010B0FFA8BFB5F457FF4A0AE3319AE
:104AC00001330FFA83FB0E9B002B00F0E980B5F950
:104AD0003C305B4540F3E480059A0899CDF82CB052
:104AE0008A42B8BF0A4600210846129112B295F8D0
:104AF00059100F9209900A90002900F057815B45E8
:104B000040F3CE800D9B099A1344DBB20393B5F9B1
:104B100038305B4500F3F680059B089A934225DA0E
:104B2000059C089E10E0B5F8863095F88D10EA696E
:104B300043EA014343F0104353632846FEF7DEF98E
:104B4000013424B2A64211DDB5F93630A342F7DCB8
:104B5000B5F93A30A34221465A462846F0DDFEF721
:104B600007F90028DFD1B5F84C30DEE70D9B002BAC
:104B700000F02A81039B95F85810DDF83CA0099AB3
:104B80000A9EDDF81C900C93571C5407FFB206D107
:104B9000049B09F1010213F809601FFA82F9A9B315
:104BA00054464FFA86F816E0B5F8863095F88D1021
:104BB000EA6943EA014343F0104353632846FEF792
:104BC0009DF995F858100134A4B2CAEB0403DBB286
:104BD000994224B219D9B5F93630A342F3DCB5F9BC
:104BE0003A30A342EFDDB8F1000F40DB5A462146D0
:104BF0002846FEF7BDF80028D6D1029BA342CCBFC1
:104C0000B5F88830B5F84C30D0E7A246039B760063
:104C10009F423A46F6B2B7D1069B9A452CDA029FDC
:104C2000069C12E0B5F8863095F88D10EA6943EAE3
:104C3000014343F0104353632846FEF75FF90AF13E
:104C4000010A0FFA8AFAA24516DAB5F93630534549
:104C500051465A462846F2DCFEF78AF80028E1D190
:104C60005745CCBFB5F88830B5F84C30DCE795F83F
:104C70008D10B5F84A309BE795F859100B9B0BF156
:104C8000010B1FFA8BFBC3EB0B03DBB299420FFA4C
:104C90008BFB40F28480B5F93C305B453FF737AF82
:104CA000119B5B453BDD059FDDF80880069EB5F94D
:104CB00038305B452CDCB7422ADA3C4610E0B5F8C8
:104CC000863095F88D10EA6943EA014343F01043BA
:104CD00053632846FEF712F9013424B2B44217DABE
:104CE000B5F93630A34221465A462846F4DCFEF791
:104CF0003FF80028E3D1A045CCBFB5F88830B5F81F
:104D00004C30DEE7099B0C930A9EDDF81C90B5E75A
:104D10000BF1010B119B0FFA8BFB5B45C7DC95F880
:104D20008E30EA691B0443F0006311685363284620
:104D3000FEF764FAD5F89C3023B1197895F89820DD
:104D40000A431A70AB68DA7A82B1D00703D5254AD4
:104D500099691160DA7A910703D5234AD9691160FC
:104D6000DA7A520702D5214A1B6A1360E88CAA8CB2
:104D7000698EAB8E139CEC6703441144B5F84A402E
:104D8000B5F84C00BDF81860A5F88460A5F880104F
:104D9000A5F88230A5F88640A5F8880075E50C9B3B
:104DA00009930A96CDF81C90CDF82CB0129B0E9A60
:104DB0000133DBB29A4212933FF472AFB5F93C3043
:104DC0005B453FF799AE6BE7099B0C930A9EDDF8B4
:104DD0001C90DDF83CA01FE7089805900020089083
:104DE00018E400BF00E100E004E100E008E100E0B9
:104DF0002DE9F04F056EAC7B8C4295B007D8EB7B6C
:104E0000994204D8AA7C091B02FB01F10FE02E7C19
:104E1000B142C0F091826B7C994200F28D82EB7BB3
:104E2000AA7C01330B449B1B191B02FB01F1834637
:104E30002868FDF7A9FBAB6803EB0009484603228D
:104E40000021FDF7A1FB002840F07682EC7C0321D5
:104E500022464846FDF798FB2E7D03342146324614
:104E600080464846FDF790FB95F815A0069034441F
:104E7000524621464846FDF787FB01220AF1FF33DF
:104E800002FA03F30342AF7D0CBF049002FA0AF268
:104E900004EB0A0618BF831A31463A46484618BF43
:104EA0000493FDF771FB7B1E012202FA03F3034218
:104EB00095F817A00CBF0590BA403E4418BF831A5E
:104EC00031465246484618BF0593FDF75DFBBBF9D6
:104ED0002430049A0790002BB7BF00231F461F46BB
:104EE000ABF82430D71900F13382BBF9203007EB3F
:104EF00008029A429BF85C3040F32182002B00F0BC
:104F00001B82049B002BB6BF049B00235B42ABF8C3
:104F100024302A7EBBF8263013441BB2ABF826306F
:104F200000279BF84820002A34D09BF849208AB3F8
:104F3000BBF94000BBF9442008EB07010244914251
:104F40000EDD049A002AB7BF049AABF8240052423F
:104F5000ABF824202A7E13441BB2ABF8263000277E
:104F6000BBF94220BBF94610687E0A44121A9342EC
:104F700010DD297E5846FFF773F8DBF86050BBF868
:104F800026302A7EBBF84010ABF824109B1A1BB2C7
:104F9000ABF82630BBF922209A4240F3CD816C7EDB
:104FA0000698BBF84C10BBF84A201C44B244059E3E
:104FB0000590241A9142A4EB060400F0ED81BBF9A0
:104FC0003220BBF936000490BBF924E0BBF93A600B
:104FD000D019074607980897724410184744B842FA
:104FE000B8BF3846B0420146A8BF314604980E917A
:104FF000013981420C91C0F2B08108988242A8BF69
:10500000024622EAE27296420D9240F3A681BBF973
:1050100034602A7E0699BBF93C00BBF93850344411
:1050200033442646D4188A19A242B8BF2246824287
:105030001446A8BF04460996661EAE421094C0F2FC
:105040008C81099A9342A8BF134623EAE3738342F3
:105050000A9380F28281DBF80840DBF81410002309
:10506000012213A8FDF7B8FAE37A139AE3B172B6F6
:10507000E37AD80706D5C049E36808680340A3610E
:105080000B60E37A990706D5BC4923690868034099
:10509000E3610B60E37A5B0705D5B949636908688A
:1050A000034023620B6062B62368D968914207D03F
:1050B000B4481860B449DA6042F080401861196061
:1050C000DBF89C302BB11A789BF8981022EA010289
:1050D0001A709BF88E30DBF81C201B0443F0004351
:1050E00043F02A0353635846FDF708FF9BF88D30C1
:1050F0000D99DBF81C2041EA034343F0104353634E
:105100005846FDF7FBFE9BF88D10BDF83030DBF8FC
:105110001C2043EA014343F0104353635846FDF714
:10512000EDFE9BF88E30DBF81C201B0443F000439F
:1051300043F02B0353635846FDF7E0FE0A989BF8B3
:105140008D30DBF81C20A842B8BF284640EA034354
:1051500043F01043536304465846FDF7CFFE9BF8D7
:105160008D30DBF81C20B6B246EA034343F010430F
:1051700053635846FDF7C2FE9BF88E30DBF81C20C7
:105180000D991B0443F0004343F02C035363049B2D
:105190008B42B8BF0B4658461193FDF7AFFE099BF3
:1051A000A3422DDDCDF810A0CDF82C80DDF830A085
:1051B000119E0E9DCDF82890D846BB46099FB2455A
:1051C000A8BFB14611DB98F88D10B8F84C30D8F86C
:1051D0001C2043EA014343F0104309F101095363E2
:1051E0004046FDF78BFEA945EDD10134A742E6D13B
:1051F0005F46DDF810A0DDF82890C346DDF82C806E
:105200009BF86430012B40F221820AF1070323F05E
:105210000708069B002B40D0CDF81080CDF82890D1
:105220000597099DDDF83480DDF838900C9F1E4607
:105230004FF0000A474528DB4446BBF93630A3420D
:1052400020DCBBF93A30A3421CDDBBF93830AB425D
:1052500018DCBBF93C30AB4214DD089BA342584636
:1052600003DC059BA34200F3AE819BF88D10BBF8D5
:105270004C20DBF81C3042EA014242F010425A63F3
:10528000FDF73CFE01344C45D7D1013E05F1010547
:10529000D0D1099A069B134409930E9B119AC2EB35
:1052A000030A109B099A9E1A0AFB06F3012B03F1CD
:1052B000FF340FDD9BF88D10BBF84C30DBF81C2061
:1052C00043EA014343F0104353635846FDF716FE8B
:1052D000013CEFD19BF88D10BBF84C30DBF81C2063
:1052E00043EA014343F0C053116853635846FDF746
:1052F00085FFDBF89C3023B119789BF898200A438E
:105300001A70DBF80830DA7A82B1D00703D51F4A69
:1053100099691160DA7A910703D51D4AD96911603C
:10532000DA7A520702D51B4A1B6A1360BBF8243095
:10533000079A1A44ABF8242015B0BDE8F08F002B73
:1053400040F0FF809BF848306BB9BBF9263021E66E
:105350009B1AABF824300027C7E5079B0EEB03012F
:10536000ABF82410E8E79BF84920BBF92630002A67
:105370003FF410AEF4E500BF80E100E084E100E01E
:1053800088E100E001403F0000003F8000E100E0D4
:1053900004E100E008E100E09BF86400012840F22D
:1053A000D3800AF10706012300F1FF3A03FA0AFA53
:1053B000059B26F00706002BB8D05FFA8AF223443B
:1053C0001146089300233A46CDF818800F469846B8
:1053D000069B002B40D008EB030A0599089B5B1A3B
:1053E000444604939BF86730B4FBF3F5F10803FBE4
:1053F0001545013B5B1B13FB00F319F801C09BF83B
:105400006650D9B24CFA01F32B40BB42C8EB040EF4
:1054100004F101041CD3BBF83250BBF936301544FB
:105420007544ADB229B28B4212DCBBF93A308B42E3
:105430000EDDBBF834E0049BBBF9381073449BB21B
:105440000FFA83FE714503DCBBF93C10714508DCA3
:1054500054450644C6D1A046059B013B0593B7D1F0
:1054600064E79BF88EE0DBF81C000A934FEA0E4ECF
:105470004EF0004141F02A01BBF84A3041635846E2
:105480000B920993FDF73AFD9BF88DE0DBF81C00C9
:1054900045EA0E4E4EF0104141635846FDF72EFD91
:1054A0009BF88DE0DBF81C0045EA0E4545F0104501
:1054B00045635846FDF722FD9BF88E50DBF81C0033
:1054C0002D0445F0004545F02B0545635846FDF792
:1054D00015FD9BF88D500A9BDBF81C0043EA05453F
:1054E00045F0104545635846FDF708FD9BF88D5083
:1054F0000A9BDBF81C0043EA054343F01043436377
:105500005846FDF7FBFC9BF88E00DBF81C300004CE
:1055100040F0004040F02C0058635846FDF7EEFC88
:105520009BF88D00099ADBF81C3042EA004141F0FB
:10553000104158465963FDF7E1FC9BF864000B9A53
:1055400086E7BBF92630ECE4059B002BC8BF049727
:105550007FF7ECAE4FEADA026FEA0A0319F802208D
:1055600003F0070342FA03F3DD070AF1010122D435
:1055700001278A460026C6EB0805202DA8BF202556
:1055800051462A464846FCF7FFFF049B0297F11854
:105590000246009101942B462E4400215846FEF706
:1055A000C1F9B045AA44E6D8059BDB1B002B059347
:1055B0003C44CFDCBAE603224846FCF7E5FF0AF19B
:1055C0000401871CD5E79BF867309BF86420BAFB81
:1055D000F3F1049803FB11A1013B5B1AC00813FB14
:1055E00002F30A9A115C9BF86600DBF854200B92D8
:1055F000DBB241FA03F3184003F02AFEDBF86C102B
:1056000003F07AFE04F064F80B9ADBF85030754929
:10561000C0B29B1A03FB00F302EB531319409BF833
:105620008D00DBF81C2041EA11418BB243EA0043B4
:1056300043F0104353635846FDF760FC04989BF811
:105640006430C3180AF1010A04931BE6069B002B81
:105650007FF723AE099ECDF810904FEADA03049944
:105660006FEA0A02CB5C02F00702134113F0010358
:105670000AF10102099240F0A5800A93731C0B9372
:105680000E9B01330F93BBF93870B74224DCBBF992
:105690003C30B34220DD089D0D9CA54203DC1BE09D
:1056A0000134A54216D0BBF93630A342F8DCBBF971
:1056B0003A30A342F4DD9BF88D10BBF84C30DBF898
:1056C0001C2043EA014343F0104353635846FDF75F
:1056D00015FCE5E7BBF93870089CDDF824A04FF015
:1056E0000009C9EB0805202D28BF202551462A4670
:1056F0000498FCF749FFB742014632DCBBF93C2075
:10570000B2422EDD6A1E012313FA02F228D05B4654
:105710000695B346054617461E46B6F93620A24200
:1057200014DCB6F93A20A24210DD3D4296F88D0015
:1057300014BFB6F84A10B6F84C10F26941EA0041BD
:1057400041F0104151633046FDF7D8FB7F0804F16A
:105750000104E2D13346069DB3F938705E469B469C
:10576000AA44A944C845BCD8BE421ADBBBF93C30A8
:10577000B34216DD0C9B9C4204F1010511DC0F9C29
:105780009BF88D10BBF84C30DBF81C2043EA01433A
:1057900043F01043013553635846FDF7AFFBA54274
:1057A000EED10B9B0A9A01361344B3427FF46BAFE0
:1057B000059B0A9A013B9B1A002B05933FF74DAFBF
:1057C00009966AE5099904980322FCF7DDFE0AF1BF
:1057D00004030993431C02300A937FF44FAFDDF8B2
:1057E00024A03AE71FF8E0072DE9F04F95B09DF8A7
:1057F0008040BDF87850039424B2059506949DF836
:105800008450BDF87C60049604EB440464002E468A
:1058100009950D19002D40F3BA8137B20897FF00A2
:10582000D519002D40F3B3819A46049E059B07923B
:10583000B34205468B4600F0BF81438EB0F93A1063
:105840005B449BB21AB28A42164680F2A081AA8EAD
:105850000798B5F93CE0104482B210B27045079049
:1058600080F29581B5F936000A9634448442B046F8
:10587000B34640F38C81079EB5F938C0069637448D
:10588000674540F38481039C099E04EB4404F600C1
:1058900080454FEA44040896C0F2B2820FFA84F8B9
:1058A0009946C3448B45079BC4BFC9EB01040FFA5B
:1058B00084F86345C0F2E682BDF920709346069BEA
:1058C000AC6869693B447345C8BFCBEB0E074FF02A
:1058D00000034FF0010213A8C8BF3FB2FCF77CFEE3
:1058E000E37A139AE3B172B6E37AD80706D5A949E9
:1058F000E36808680340A3610B60E37A990706D563
:10590000A549236908680340E3610B60E37A5E07F9
:1059100005D5A24963690868034023620B6062B63B
:105920002368D968914207D09D4818609D49DA6084
:1059300042F0804018611960D5F89C302BB11A787C
:1059400095F8981022EA01021A7095F88E30EA69EB
:105950001B0443F0004343F02A035363284609F134
:10596000FF339844FDF7CAFA95F88D30EA6949EAA1
:10597000034343F0104353632846FDF7BFFA95F8FD
:105980008D30EA691FFA88F848EA034343F0104370
:1059900053632846FDF7B2FA95F88E30EA691B0486
:1059A00043F0004343F02B0353632846FDF7A6FA68
:1059B00095F88D30EA694BEA034343F010430BF14D
:1059C000FF3453632846FDF799FA274495F88D3044
:1059D000EA69BCB244EA034343F0104353632846E8
:1059E000FDF78CFA95F88E30EA691B0443F000430A
:1059F00043F02C030AEB8A01536328460C460B91B3
:105A0000FDF77CFA684A079E631D13440C93082334
:105A10000D9301230693AB46BBF93C20B24240F301
:105A20008D80099B002B7ED0099B5A1ED2B2013279
:105A3000324413B20793BBF93820B2426ADC039BAD
:105A4000089603F1FF380B9B0A9C1A46564B02EB53
:105A5000030A5E46D346DDF830A05FFA88F81BF8EB
:105A6000012B069B1A42059B049A18BF1F46039BF5
:105A700008BF17462BB3A5B208F101022A440FFA5A
:105A800082F903E0013424B2A14516D0B6F93630CC
:105A9000A342F7DCB6F93A30A342F3DD96F88D2045
:105AA000F36947EA024242F0104201345A63304639
:105AB00024B2FDF723FAA145E8D105EB080401342F
:105AC00024B2D345CBD1039BB346089E13B35D1ECE
:105AD000EDB2013525442DB203E0013424B2AC42CD
